:10096200D5E2CAC7D3C938303531B5A5C6ACBBFA52
:10097200B7A2CBCDB5C4D7D6B7FBB4AE2121210DDA
:0D0982000A003F065B4F666D7D077F6F40EA
:0909F60004090A0A0A0A010800BA
:1009BC00EF1FAA0670011E4A600BE4FDEDC394788C
:0509CC0050EE0D80F764
:0109D1002203
:1009D200759850758920758780758BFD758DFDD250
:0209E2008E2263
:1009E40075CBFF75CADC75985075C830E4F587D2AD
:0209F400CA2215
:10092D001209E4D2A8D288D2ACD2AFE4FCE4F580AF
:10093D0004A804088002C333D8FCF4F5A074092C74
:10094D00F8E690098493F5807F047E001209BC0CB3
:05095D00BC04DA80D6A5
:030023000208E7E9
:0D08E700C0E0C0D075D000C000C006C00742
:1008F40030982BC298AF99BF2302801FEFC3943066
:10090400401CEFD394395016EF24D0FFAE080508ED
:0E09140074092EF8A607E508B4040375080060
:0B092200D007D006D000D0D0D0E032CB
:0300030002088C64
:10088C00C0E0C083C082C0D075D000C000C001C021
:07089C0002C003C006C00703
:1008A300750DFF750E09750F62E4FFAB0DAA0EA956
:1008B3000F8F8275830012098F6014AE070F8E822B
:0F08C30075830012098FF5993099FDC29980DC79
:1008D200D007D006D003D002D001D000D0D0D08231
:0508E200D083D0E032DC
:03000000020800F3
:0C080000787FE4F6D8FD75810F020847F0
:10098F00BB010CE58229F582E5833AF583E022501D
:10099F0006E92582F8E622BBFE06E92582F8E22267
:0D09AF00E58229F582E5833AF583E4932281
:10080C0002092DE493A3F8E493A34003F68001F2CC
:10081C0008DFF48029E493A3F85407240CC8C333ED
:10082C00C4540F4420C8834004F456800146F6DFBC
:10083C00E4800B01020408102040809009F6E47E4D
:10084C00019360BCA3FF543F30E509541FFEE493B1
:10085C00A360010ECF54C025E060A840B8E493A378
:10086C00FAE493A3F8E493A3C8C582C8CAC583CAA3
:10087C00F0A3C8C582C8CAC583CADFE9DEE780BE5B
:0109FF0000F7
:00000001FF
