:0B097700C0F9A4B0999282F88090BFF4
:0D096900080901020A03090A050901080036
:10095300EF1FAA0670011E4A600BE4FDEDC39478F5
:0509630050EE0D80F7CD
:01096800226C
:10080000900002E0FF6508700302088C8F08EF2457
:1008100011605424F4602A24FD7071E50975F00A12
:10082000A4250AF5110511E511B41803E4F511E545
:100830001175F00A84F509E51175F00A8485F00A4E
:1008400022E50C75F00AA4250DF5110511E511B48A
:100850003C03E4F511E51175F00A84F50CE511751A
:10086000F00A8485F00D22E50F75F00AA42510F535
:10087000110511E511B43C03E4F511E51175F00A19
:0C08800084F50FE51175F00A8485F01076
:01088C002249
:100919009000037489F0E4FC90000074FFF0740106
:10092900A804088002C333D8FC900001F074092C94
:10093900F8E690097793900000F07F047E00120991
:0A094900531208000CBC08D080CC4B
:0300000002088D66
:0C088D00787FE4F6D8FD7581110208D4D4
:10089900020919E493A3F8E493A34003F68001F253
:1008A90008DFF48029E493A3F85407240CC8C33360
:1008B900C4540F4420C8834004F456800146F6DF2F
:1008C900E4800B0102040810204080900969E47E4D
:1008D900019360BCA3FF543F30E509541FFEE49324
:1008E900A360010ECF54C025E060A840B8E493A3EB
:1008F900FAE493A3F8E493A3C8C582C8CAC583CA16
:10090900F0A3C8C582C8CAC583CADFE9DEE780BECD
:010976000080
:00000001FF
