:060D6F0025352E3166005F
:100BCB000E3FC0F9A4B0999282F88090C69CFFBFEB
:100BDB0007230504030201050C152A02000000007F
:100BEB0000000000000000000000000000000B0AE5
:030BFB00012200D4
:100CC000EF1FAA0670011E4A600BE4FDEDC3947885
:050CD00050EE0D80F75D
:010CD50022FC
:100CA900E4FEEF25E0FF92B0C2B10000D2B100002E
:060CB9000EBE08EEC2B100
:010CBF002212
:0D0D3D00C2B20000D2B20000C2B10000221C
:1009E1007554FF758901758C4CE4F58A75A88212DE
:1009F1000C26120CECE50EC4540FF52CE50E540F29
:100A0100F52DE50CC4540FF52EE50C540FF52FE52B
:100A11000BC4540FF530E50B540FF531E50AC454FE
:100A21000FF532E50A540FF533E509C4540FF534D7
:100A3100E509540FF535E508C4540FF536E50854BA
:100A41000FF537E50D14F5387D037839740CF60888
:100A5100DDFC120003120B8D8F5E8E5D8D5C8C5B55
:100A61007558FF75590D755A6F7B007A00794E12D2
:100A710005CEE4F54DFDFB7A00794E120D17EF140A
:100A8100FDEDF4603C744E2DF8E6FF642E602FC33B
:100A9100EF648094B04018D3EF648094B95010EFA4
:100AA10024D0FFC37412954D242AF8A607800DBFE8
:100AB1002D0AC37412954D242AF8760D054D1D801B
:100AC100C07D14ED6411600B742A2DF8E6243FF803
:100AD100E6800B742A2DF8E6243FF8E6547FFF12D6
:100AE1000CA91DBDFFDD120D3DE554650870030223
:100AF10009F3850854208C035380FCD28C0209F33E
:03000B00020C6F75
:040C6F00C0E0C0D051
:100C7300758C4C758A000522E522B40A084380036B
:050C8300752200C28C87
:050C8800D0D0D0E032E5
:100CD600E4FFFED2B4C2B4EF25E0FFA2B7E4334F7F
:050CE600FF0EBE08EE48
:010CEB0022E6
:100D2C00E4FEEF25E0FF92B6C2B4D2B40EBE08F2D8
:010D3C002294
:0D0D4A00D2B5120D2CAF05120D2CC2B52232
:070003007D157F80020D4A0C
:100B8D001200037F327E00120CC0D2B57F02120D0F
:100B9D002C120CD68F10120CD68F0FC2B5E510FE8D
:100BAD00E50F7806CEA2E713CE13D8F8FDAC06EC10
:0E0BBD00120119E4FBFA7980783E12000E2234
:100D02007E01EE600F5F24FF9290D291C291EE2598
:040D1200E0FE80EE91
:010D160022BA
:100C8D00E4FFFE30900D7401A806088002C333D82E
:0B0C9D00FC4207D291C2910EBE08E895
:010CA8002229
:0A0D6400D292120D02120C8DC29201
:010D6E002262
:0D0D5700D292120D02AF05120D02C29222BF
:100C4C00E4FD7F8E120D57E4FCEC25E02480FF744C
:100C5C00082CF8E6FD120D570CBC07ED7D807F8E3D
:030C6C00020D571F
:100CEC007D81E4FCAF05120D6474082CF8A6070D89
:050CFC000D0CBC07EF28
:010D010022CF
:100C2600E4FD7F8E120D577DA77F90120D577F81B1
:100C3600120D64EF30E708547FFD7F80120D577D5B
:060C4600807F8E020D57B5
:10000E00EC4D6011E8497017ED33EC3304600DE4EC
:10001E00FCFFFEFD22E933E8330470F8020187127B
:10002E00015258046009E4CC24815006285009027C
:10003E00019128400302018EC0E0EB4A7044B98062
:10004E0006D0E0FB02017DEF4E701CBD8008EBFF79
:10005E00EAFEE9FD80EBE98DF0A4FEE5F00200F783
:10006E00E9CDF9EAFEEBFFEF89F0A4FCE5F0CE89CD
:10007E00F0A42EFFE435F0CD89F0A42DFEE435F08A
:10008E008067EF4E7005BD80D780C3EF8BF0A4ACB8
:10009E00F0EE8BF0A42CFCE435F0F8EF8AF0A42CF3
:1000AE00E5F038FCE433CB8DF0A42CFCE5F03BF806
:1000BE00EE8AF0A42CFCE5F038F8E433CF89F0A4F6
:1000CE002CFCE5F038CF3400CE89F0A42FFFE5F0FC
:1000DE003EFEE433C98DF0A42EFEE5F039CD8AF054
:1000EE00A42FFFE5F03EFEE43DFD33D0E0FB5007CC
:1000FE000BBB000F020191EC2CFCEF33FFEE33FE35
:06010E00ED33FD02016962
:1001140075F020800E75F010800575F0087D007E66
:10012400007F003392D530D50312052EEC334010F6
:10013400EF33FFEE33FEED33FDEC33FCD5F0ED226F
:0E014400E5F0247EA2D513CC92E7CDCEFF22AB
:10057200E56C2458F8E6056C227855300702785865
:10058200E475F00112053C0204D62000EB7F2ED266
:10059200008018EF540F2490D43440D4FF30040B61
:1005A200EF24BFB41A0050032461FFE56D60021509
:1005B2006D0570E5707002056F30070D7855E475B2
:1005C200F00112053CEF02051C020BFF7403D20777
:1005D2008003E4C207F56C8B558A568957E4F56DA2
:1005E200F56FF570E56D60077F201205AD80F5753A
:1005F2006EFFC201C200C202C203C205C206C20825
:1006020012057BFF700D3007057F001205BEAF702B
:10061200AE6F22B4255FC2D5C20412057BFF24D07F
:10062200B40A00501A75F00A786D30D50508B6FF85
:100632000106C6A426F620D5047002D20380D9246E
:10064200CFB41A00EF5004C2E5D2040208ABD201C3
:1006520080C6D20080C0D20280BCD2D580BAD20578
:1006620080B47F201205AD2002077401B56D0040F1
:10067200F1120572FF1205AD0205E6D208D206801C
:1006820095120572FB120572FA120572F94A4B7045
:100692000679A27A097BFF20022EE56D602A7E0090
:1006A2008E827583001204EF60060EEE656E70F0A6
:1006B200C2D5EBC0E0EAC0E0E9C0E0EE12090BD01F
:1006C200E0F9D0E0FAD0E0FB1204D6FF60AAEBC05A
:1006D200E0EAC0E0E9C0E01205ADD0E02401F9D0C3
:1006E200E03400FAD0E0FBE56E0460DCD56ED98020
:1006F20087D20280A21208EE60F7E56E7001041242
:10070200019CA96E600DE56E600914F56E120995E3
:10071200EF60F3EA30E702F404C3995077EAF42574
:100722006E0430E701E404F56E800D1208EE60C13C
:10073200EA056E256E12019CEA786BF630E701E459
:10074200256E04D56E042005011412090BE4C0E0E5
:10075200120995786BE6601320E70714F6120595E7
:10076200802204F6D0E014C0E07F00120595E56E09
:10077200600712058C156E800B30050312058CD0B4
:10078200E00205E6D0E00480C51208EE60A0E56E46
:100792000412019C786BEAF6E56E20050260010402
:0507A200240412090B04
:1007A70074FF04C0E0120995120595E56E20050255
:1007B700600312058CD0E0B56EE87F4512059F787F
:1007C7006BE67F2B30E7047F2DF404C0E01205AD04
:1007D700D0E075F00A84C0F0120596D0E0120596B5
:1007E7000205E6791080027908C206C2088008D29D
:1007F700D5790A8004790AC2D5E56E047002F56ED0
:10080700E4FAFDFEFF120572FC7B082001131205B6
:1008170072FD7B1030000A120572FE120572FF7B13
:1008270020EC3382D592D55013C3E43000069FFFE6
:10083700E49EFEE42001039DFDE49CFCE4CBF8C2AA
:1008470001EC700CCFCECDCCE824F8F870F380170C
:10085700C3EF33FFEE33FEED33FDEC33FCEB33FB3D
:10086700994002FB0FD8E9EB300105F8D0E0C44806
:10087700B201C0E00AEC4D4E4F78207B0070C2EA0F
:10088700B56E0040BCC0E012090DD0F0D0E02001E9
:1008970004C4C0E0C4B201C0F0120596D0F0D5F090
:1008A700EB0205E612054C06835307EA5806544C3B
:1008B70006504207EE4F07F64407F6490669430715
:1008C700FC55072D46078B4506F74709C2500658C2
:1008D7002D065C2E067F2B066023067D2009AB2A9A
:1008E70006184800000677E56EB4FF03756E06121A
:1008F7000572FC120572FD120572FE120572FF7871
:10090700640201CB790AA2D5200314300509B91076
:10091700020404B9080104A2D520060250010420EC
:1009270002689202B56D005034C0E07F2030031991
:100937007F30A20272067205500F120964C202C20A
:1009470006C205C2087F30800F300503E9C0E012F8
:1009570005AD300503D0E0F9D0E0B56DCC30051713
:100967007F30B9100C1205AD7F583004077F7880AF
:1009770003B908031205AD3002057F2D0205AD7FCF
:10098700202008F87F2B2006F322920280CF7F00D9
:10099700B4070050052464F8E6FF22286E756C6CD6
:1009A7002900D2011205723001F8C201786D30D5E5
:1009B7000108F60206182D50434958120572240300
:1009C700B405004001E49009BD9312059E743A12E4
:0A09D700059ED203756D040207EAC5
:10015200E9D2E7C933E833F892D5EDD2E7CD33ECF3
:0701620033FC5002B2D5226C
:10016900EC30E7100FBF000C0EBE00080DBD0004F7
:100179000BEB6014A2D5EB13FCED92E7FD2274FFA3
:10018900FCFDFEFF22E480F8A2D574FF13FC7D80FC
:03019900E480EF10
:10019C00F920E72824F950037907E4F42402FB182A
:1001AC00DBFDE624FB5014E9600DE4F618E604F6DA
:0F01BC00B40A08E4F6D9F57401F60A22C2D52276
:1001CB00ED33EC3392D5FA602AB4FF33EDC2E77B03
:1001DB00FF60067A0179F0E4227A0179F920D504DF
:1001EB007A0179F4224E614E002B494E46002D497F
:1001FB004E4600E47A08F608DAFC7B00740722E826
:10020B00C0E0ECC0E0EDC0E0EEC0E0EFC0E0EA75AE
:10021B00F010A4CAABF075F04DA42BFBE435F0FC49
:10022B00EA2410FAEB34C5FBEC34D9FCEDC2E7FF42
:10023B0075F056A4F42411C5F0F434C58FF0A42A3C
:10024B00E5F03BE43CF620E714120496D0E0FFD037
:10025B00E0FED0E0FDD0E0FC1203C98014F40412E0
:10026B000496D0E0FFD0E0FED0E0FDD0E0FC120021
:10027B000ED0E0F8E6FAEDD2E7CD33EC332482FB77
:10028B00E4C3CF33CFCE33CECD33CD33DBF37B07CC
:10029B0075F00A846004F6081B0AE5F0F6088FF087
:1002AB00740AA4FFACF08EF0740AA42CFEACF050D0
:1002BB00010C8DF0740AA42CFDE435F0F608DBDE9E
:0302CB0074072293
:1002CE00020187E86480F8E933E83360110460F0D6
:1002DE00ED33EC337009E8FCE9FDEAFEEBFF220496
:1002EE0060DED3EB9FEA9EE99DE8C2E78CF0C2F791
:1002FE0095F0400CE8CCF8E9CDF9EACEFAEBCFFB5D
:10030E0012015285D0F05804700320D5B3E8047062
:10031E00075002B2D502019192D5EC0460F7E4CCFD
:10032E00C0E0C398F8603B94186008400DD0E0FB25
:10033E00020169E4FBFAC9FC8028E830E406E4C94E
:10034E00FBE4CAFCE830E305E4C9CACBFCE8540779
:10035E006010F8C3E913F9EA13FAEB13FBEC13FC84
:10036E00D8F130F52FC3E49CFCEF9BFFEE9AFEED27
:10037E0099FDD0E0FBEF4E4D4C701222DB030201D3
:10038E008EEC2CFCEF33FFEE33FEED33FDED30E75C
:10039E00EB020169EF2BFFEE3AFEED39FDD0E0FBEB
:1003AE0050130BBB0003020191ED13FDEE13FEEF94
:0803BE0013FFEC13FC020169BE
:1003C600020191EC5D046005E8590470030201879F
:1003D600120152580460F6EC4860F2EC7004FDFE1F
:1003E600FF22C860DB2481C85009C398600250060A
:1003F60002018E9850CAF582E9294B4A7005AB82F4
:1004060002017D75F0007C1A7880C3EF9BEE9AEDB1
:1004160099400DC3EF9BFFEE9AFEED99FDE842F081
:10042600DC23ACF0D0E0FFD0E0FED0E0FDAB8220D4
:10043600E7101BEB60BAEC2CFCEF33FFEE33FEED5E
:1004460033FD020169E803F830E705C0F075F000F6
:10045600EF2FFFEE33FEED33FD40B830E7C280AA42
:100466003F8000004120000042C80000447A00009E
:10047600461C400047C35000497424004B18968020
:100486004CBEBC205A0E1BCA6753C21C749DC5AE17
:10049600FB60065407601C23231204C4EB54386027
:1004A600091204B01204BF12000EECF8EDF9EEFAD0
:1004B600EFCB22EB1204BF80F1543803241C9004C6
:1004C60066FE93FC0EEE93FD0EEE930ECE93FF2288
:03000000020B01EF
:0C0B0100787FE4F6D8FD758170020B4887
:1004D600BB010689828A83E0225002E722BBFE0224
:0904E600E32289828A83E4932257
:1004EF00BB010CE58229F582E5833AF583E02250C2
:1004FF0006E92582F8E622BBFE06E92582F8E2220C
:0D050F00E58229F582E5833AF583E4932225
:10051C00BB010689828A83F0225002F722BBFE01BE
:02052C00F322B8
:0E052E00C3E49FFFE49EFEE49DFDE49CFC22DE
:10053C00FAE6FB0808E6F925F0F618E6CA3AF622C0
:10054C00D083D082F8E4937012740193700DA3A33E
:10055C0093F8740193F5828883E473740293686052
:06056C00EFA3A3A380DF52
:100BFF00EFB40A07740D120C0A740A309811A899F1
:100C0F00B8130CC2983098FDA899C298B811F63055
:070C1F0099FDC299F599222D
:100D1700E4FFFE1204D6600C0FEF70010E09E970B4
:050D2700F20A80EF223A
:100B0D000209E1E493A3F8E493A34003F68001F214
:100B1D0008DFF48029E493A3F85407240CC8C333E9
:100B2D00C4540F4420C8834004F456800146F6DFB8
:100B3D00E4800B0102040810204080900BCBE47E72
:100B4D00019360BCA3FF543F30E509541FFEE493AD
:100B5D00A360010ECF54C025E060A840B8E493A374
:100B6D00FAE493A3F8E493A3C8C582C8CAC583CA9F
:100B7D00F0A3C8C582C8CAC583CADFE9DEE780BE57
:010BFE0000F6
:00000001FF
