:06018900010800010980DD
:10013900E4FE00000000EF25E0FF92A100000000AE
:10014900D2A000000000C2A00EBE08E6D2A10000A5
:100159000000D2A000000000A2A1B392D5000000C7
:0501690000C2A0A2D5B8
:01016E00226E
:04016F007F0A7E0085
:10017300EF1FAA0670011E4A600BE4FDEDC39478DD
:0501830050EE0D80F7B5
:010188002254
:1000F700AC07D2A100000000D2A000000000C2A1FE
:1001070000000000C2A07F58120139BC0104AF08EB
:100117008005BC0205AF09120139AF05120139C2CA
:10012700A100000000D2A000000000D2A100000042
:020137000022A4
:10008F00E4F50AFBF9FD7F011200F77F021200F77A
:10009F0020911412016F20910EEBC394FF50010BAE
:1000AF00AD037F011200F720931112016F20930B04
:1000BF00EB60011BAD037F011200F72095141201B5
:1000CF006F20950EE9C394FF500109AD017F021215
:1000DF0000F72097BB12016F2097B5E9600119ADAA
:0800EF00017F021200F780A856
:03000000020003F8
:0C000300787FE4F6D8FD75810A02004AFF
:10000F0002008FE493A3F8E493A34003F68001F278
:10001F0008DFF48029E493A3F85407240CC8C333F2
:10002F00C4540F4420C8834004F456800146F6DFC1
:10003F00E4800B0102040810204080900189E47EC7
:10004F00019360BCA3FF543F30E509541FFEE493B6
:10005F00A360010ECF54C025E060A840B8E493A37D
:10006F00FAE493A3F8E493A3C8C582C8CAC583CAA8
:10007F00F0A3C8C582C8CAC583CADFE9DEE780BE60
:01018F00006F
:00000001FF
