:1009F3000B0DC0F9A4B0999282F88090FF04090A04
:0A0A0300040000021801900108FF32
:100A0E00EF1FAA0670011E4A600BE4FDEDC3947839
:050A1E0050EE0D80F711
:010A230022B0
:0D0A3600E4FF6390017E64DEFE0FBF32F529
:010A43002290
:100A2400AF1990FD04EFF0E518A3F090FD0074C336
:020A3400F022AE
:10088C00EF700BE5192432FFE43518FE800AE519E8
:10089C0024CEFFE51834FFFE8E188F19D3E519947A
:1008AC00F4E518940140087518017519F48011C30A
:1008BC00E5199464E51894005006751800751964D0
:1008CC0085181A85191B7B03AE1AAF1B7C007D0A99
:1008DC001208F774092BF8A605AE1AAF1B7C007D25
:0A08EC000A1208F78E1A8F1BDBDEDC
:0108F60022DF
:1009920090FD03E044F0FF6508602F8F08EF240903
:1009A200601724FC601024FE600714701DE4FF80B1
:1009B200027F0102088C120A24E4FFE42FF582E48C
:0A09C20034FCF583EFF00FBF65F180
:0109CC002208
:10094C0075A881D28890FD007403F0E4F590E4F969
:10095C0090FD02E4F0740929F8E6240DF8E690FD08
:10096C0001F0C3740799FF7401A807088002C33310
:10097C00D8FC90FD02F07F047E00120A0E12099240
:06098C0009B904CC80C88B
:030003000209CD22
:1009CD00C0E0C083C082C0D075D000C006C007C2D1
:1009DD00AF120A36120A24D2AFD007D006D0D0D02B
:0609ED0082D083D0E0324D
:03000000020800F3
:0C080000787FE4F6D8FD75811B020847E4
:1008F700BC000BBE0029EF8DF084FFADF022E4CCE5
:10090700F875F008EF2FFFEE33FEEC33FCEE9DECAD
:10091700984005FCEE9DFE0FD5F0E9E4CEFD22EDF3
:10092700F8F5F0EE8420D21CFEADF075F008EF2F3D
:10093700FFED33FD4007985006D5F0F222C398FD2E
:050947000FD5F0EA22CB
:10080C0002094CE493A3F8E493A34003F68001F2AD
:10081C0008DFF48029E493A3F85407240CC8C333ED
:10082C00C4540F4420C8834004F456800146F6DFBC
:10083C00E4800B01020408102040809009F3E47E50
:10084C00019360BCA3FF543F30E509541FFEE493B1
:10085C00A360010ECF54C025E060A840B8E493A378
:10086C00FAE493A3F8E493A3C8C582C8CAC583CAA3
:10087C00F0A3C8C582C8CAC583CADFE9DEE780BE5B
:010A0D0000E8
:00000001FF
