:10099C000B0FC0F9A4B0999282F88090FF081A2727
:0B09AC001003E80064000A020DA7C65B
:1009B800EF1F70011E144E600BE4FDEDC3947850D8
:0409C800EF0D80F7B8
:0109CC002208
:0A088C008E228F238B248A258926F3
:10089600E4FFAB24AA25A9268F82758300E41209FA
:1008A6001CEF25E0241AF8E6FC08E6FDC3E5239DC7
:1008B600E5229C401CE5239DF523E5229CF522AB11
:1008C60024AA25A9268F8275830074011208E9805F
:1008D600D00FBF04BDAB24AA25A926900004E523AA
:0308E60002091CE8
:10097E00E4FEFDEF25E0FF30D70D7401A8050880D9
:0D098E0002C333D8FC42060DBD08E8AF06D9
:01099B002239
:10093E00E4F598D2997B007A007908AF0EAE0D12CD
:10094E00088C7C04ECF4601774082CF8E6240FF87D
:10095E00E6FF12097E8F993099FDC2991C80E57FC2
:10096E00F47E011209B8050EE50E70C9050D80C59D
:03000000020800F3
:0C080000787FE4F6D8FD758126020847D9
:1008E900BB010FF8E58229F582E5833AF583E02813
:1008F900F0225009C58229F8E58226F622BBFE09B5
:10090900C58229F8E22582F222F8EA2583F583E9EE
:03091900932822FE
:10091C00F8BB010DE58229F582E5833AF583E8F011
:10092C00225006E92582C8F622BBFE05E92582C8BD
:02093C00F222A5
:10080C0002093EE493A3F8E493A34003F68001F2BB
:10081C0008DFF48029E493A3F85407240CC8C333ED
:10082C00C4540F4420C8834004F456800146F6DFBC
:10083C00E4800B010204081020408090099CE47EA7
:10084C00019360BCA3FF543F30E509541FFEE493B1
:10085C00A360010ECF54C025E060A840B8E493A378
:10086C00FAE493A3F8E493A3C8C582C8CAC583CAA3
:10087C00F0A3C8C582C8CAC583CADFE9DEE780BE5B
:0109B700003F
:00000001FF
