:100F0C0020253364206B6D2F680000A00016A016FE
:100F1C0000000000000000000000000000000000C5
:100F2C0000000000000000000000000000000000B5
:100F3C0000000000000000000000000030000D0068
:100F4C003003100007800C03180030000000000074
:100F5C0070000D8030031807FF860C031C0FFF80F8
:100F6C0000000000D81F0C8FFFC60C07F806FFC747
:100F7C000C0FFF80071F07018C1F7FCFFFC6FF8060
:100F8C00C60CFFC6FFC060000890888307067FCCA4
:100F9C0000CEFF818C09180EFFC3FE001050504F7D
:100FAC00FFC60C03FF0E0003F81F311E30030600B2
:100FBC001050500DFEDF6CC3FF1E6300621E7F9647
:100FCC003F83FE0010104C00301F3D803016630034
:100FDC00C3047FC63F83060011D0830030060F0385
:100FEC0030063307FF8FB6C63183FE00105F0083D7
:100FFC00FF061E033F863607F09F36063183060038
:10100C0010501043FF063F033F8636003000360673
:10101C00319FFFC01050104030076D87300606031B
:10102C003303B606619FFFC008D00880301F4CC741
:10103C00F006FFC6319FB6C6E1818C000750070F42
:10104C00FF981C0CFFC6FFCC709C67C7C7830700BA
:10105C000000000FFF8018183FC600006000C3C6D8
:10106C00870E01800000000000000000000000005E
:10107C000000000000000000000000000000000064
:10108C00000000000000000000000000FFFFFFFF58
:10109C00FFFFFFFFFFFFFFFFFFFFFFFFFFFFFFFF54
:1010AC000000000000000000000000000000000034
:1010BC000000000000000000000000000000000024
:1010CC0000000000000000002846000000000000A6
:1010DC000000000000000000000400004000047F3D
:1010EC0000200008020FFF800804088800120C087A
:1010FC0088003C320BFF0004C1888818080088F86F
:10110C0018107F0800003E0809FE00000808840043
:10111C000008084800060808301838FF904C1800E2
:10112C000011838000002601000410004000041010
:10113C0000200008FF8FFF8009100888001110089C
:10114C0088003EFF0BFF000410088818081008F8F0
:10115C001810FF8800003E1089FE000010888400E3
:10116C0003108848003C128830181011104C1800DD
:10117C001011838000102601000020004000102078
:10118C000020000BFF0FFF800820088800002008BB
:10119C00880001FE0BFF003922088818092208F884
:1011AC001809FE080000086809FE0008A60884005B
:1011BC000B2208480008200830181420104C182363
:1011CC00FF91838000002601000004080000000449
:1011DC0004FF001F04040100110410010011FF9111
:1011EC00F90011041109001F04110918114411F917
:1011FC0018112411090011241109001F0411F90000
:10120C000004100100000410011800041001180063
:10121C00141005000008100200000000000000007F
:0F122C000000000000000000244750524D430016
:1018E500013D00093430303A30303A3030001024B0
:1018F500646464A1E36D6D2E6D6D6D6D27205800D8
:10190500103E206464A1E36D6D2E6D6D6D6D272015
:0819150058000122000123002B
:1015F5001218A6759850758920E4F587758BFD75C9
:101605008DFDD2AFD2ACD28E7BFF7A0F791AF56001
:10161500FD1216A17BFF7A1079D4E4F5607D1E12C8
:1016250016A1E53DB401FB7B007A0079247D247F7A
:101635002812123B7B007A00793E7D347F281212F6
:101645003B7B007A00794E12185E7B567A0E79ED57
:10165500783F12011EE4FBFAF9783F12002D1202C1
:10166500248E5A8F5B755FFF75600F75610C855A07
:1016750062855B637B007A00794E120AF97B007AFA
:1016850000794E7D447F2812123B7B007A00793425
:0C1695007D547F2812123BE4F53D808656
:03002300021416AE
:10141600C0E0C0F0C083C082C0D075D000C000C09C
:0314260006C007F6
:101429002098030214FEC2ACC298AF99E522C39476
:10143900065011E522901234936F6008752200D28C
:10144900AC0214FEE522C394074014E522D3940CA0
:10145900500DE52275F003A404C31324298054E533
:101469002264146005E522B41506742B25228043F5
:10147900E522C39416400DE522D3941C5006742D21
:101489002522802FE522B420048F4C8032E522C327
:101499009422400DE522D39424500674022522801B
:1014A90012E522C394254010E522D3942B500974E8
:1014B900042522F8A6078007E522B42F028F32E51A
:1014C90022C394314016BF2C05752301800E741D6B
:1014D9002522F8A607741E2522F876000522E522A2
:1014E900D3943C5005E523B4010975220075230006
:0514F900753D01D2ACBD
:1014FE00D007D006D000D0D0D082D083D0F0D0E0AC
:01150E0032AA
:10060100148000000000000000FFFFFFFFFF00005A
:100611000000000000000000000000307878783011
:1006210030003030000000666666240000000000E3
:100631000000006C6CFE6C6C6CFE6C6C0000303069
:100641007CC0C0780C0CF8303000000000C4CC181D
:100651003060CC8C00000070D8D870FADECCDC762B
:100661000000003030306000000000000000000C8D
:10067100183060606030180C0000006030180C0CFD
:100681000C1830600000000000663CFF3C66000072
:10069100000000000018187E18180000000000007B
:1006A100000000000000383860000000000000FE7B
:1006B10000000000000000000000000000003838C9
:1006C1000000000002060C183060C0800000007CB1
:1006D100C6CEDED6F6E6C67C0000001030F0303023
:1006E100303030FC00000078CCCC0C183060CCFCF1
:1006F10000000078CC0C0C380C0CCC780000000CFD
:100701001C3C6CCCFE0C0C1E000000FCC0C0C0F8F0
:100711000C0CCC780000003860C0C0F8CCCCCC7890
:10072100000000FEC6C6060C18303030000000780C
:10073100CCCCEC78DCCCCC7800000078CCCCCC7C78
:1007410018183070000000000038380000383800F8
:100751000000000000383800003838183000000C64
:10076100183060C06030180C0000000000007E00EE
:100771007E0000000000006030180C060C1830608C
:1007810000000078CC0C1830300030300000007CC4
:10079100C6C6DEDEDEC0C07C0000003078CCCCCC2A
:1007A100FCCCCCCC000000FC6666667C666666FC10
:1007B1000000003C66C6C0C0C0C6663C000000F830
:1007C1006C66666666666CF8000000FE6260647CBA
:1007D100646062FE000000FE6662647C646060F03A
:1007E1000000003C66C6C0C0CEC6663E000000CC1C
:1007F100CCCCCCFCCCCCCCCC000000783030303030
:10080100303030780000001E0C0C0C0CCCCCCC78B5
:10081100000000E6666C6C786C6C66E6000000F027
:1008210060606060626666FE000000C6EEFEFED695
:10083100C6C6C6C6000000C6C6E6F6FEDECEC6C601
:10084100000000386CC6C6C6C6C66C38000000FC85
:100851006666667C606060F0000000386CC6C6C6E3
:10086100CEDE7C0C1E0000FC6666667C6C6666E66D
:1008710000000078CCCCC07018CCCC78000000FC13
:10088100B430303030303078000000CCCCCCCCCC1F
:10089100CCCCCC78000000CCCCCCCCCCCCCC78303F
:1008A100000000C6C6C6C6D6D66C6C6C000000CC73
:1008B100CCCC783078CCCCCC000000CCCCCCCC7873
:1008C10030303078000000FECE9818306062C6FEED
:1008D1000000003C303030303030303C000000004F
:1008E10080C06030180C06020000003C0C0C0C0C9F
:1008F1000C0C0C3C000010386CC60000000000001D
:10090100000000000000000000000000FF00303087
:100911001800000000000000000000000000780C3A
:100921007CCCCC76000000E060607C66666666DCAC
:1009310000000000000078CCC0C0CC780000001C92
:100941000C0C7CCCCCCCCC7600000000000078CC28
:10095100FCC0CC78000000386C6060F8606060F02A
:1009610000000000000076CCCCCC7C0CCC7800E000
:1009710060606C76666666E60000001818007818FC
:100981001818187E0000000C0C003C0C0C0C0CCC50
:10099100CC7800E06060666C786C66E600000078F8
:1009A100181818181818187E000000000000FCD64E
:1009B100D6D6D6C6000000000000F8CCCCCCCCCCFA
:1009C10000000000000078CCCCCCCC780000000006
:1009D1000000DC666666667C60F00000000076CC94
:1009E100CCCCCC7C0C1E00000000EC6E766060F07C
:1009F10000000000000078CC6018CC7800000000F6
:100A01002060FC6060606C38000000000000CCCC0D
:100A1100CCCCCC76000000000000CCCCCCCC783023
:100A2100000000000000C6C6D6D66C6C00000000B5
:100A31000000C66C38386CC6000000000000666615
:100A410066663C0C18F000000000FC8C1860C4FCC9
:100A51000000001C303060C06030301C0000001805
:100A61001818180018181818000000E03030180C79
:100A7100183030E000000073DACE00000000000002
:100A81000000A1E3000070005000700000000000B1
:0C0A910000000000000000000000000059
:0519D300ED908000F022
:0E19D8007F0A908100E0540364036002DFF494
:0119E60022DE
:0B1A1C007F0A908100E020E302DFF76A
:011A2700229C
:06195300900601E493FD83
:10195900AE071219D8EF70037F01221219D3EF7065
:10196900037F0222EB1219D4EF70037F03229081C7
:0619790000EEF07F0022E9
:10000300AE071219D8EF70037F01221219D3EF70D4
:0C001300037F0222908100EEF07F0022AB
:0519A6001219E77FB2F9
:1019AB00AE071219D8EF70037F0122908100EEF081
:0319BB007F002288
:1019E700AE07121A1CEF70037F0122908000EEF001
:0319F7007F00224C
:0F1A0D001219D8EF70037F0122908000E0FF22B2
:0D191E00E55D2565FFE55C131313541FFD07
:04192B00AC05A90757
:10192F00900601E493FFE98FF0A4FFAEF0EC7A008C
:10193F002FF570EA3EF56FAD70FB7F2412195989B0
:03194F000E8C0CEF
:011952002272
:1018A600C2B3D2B3E4FBFD7F401219597F4112192E
:1018B60053E4FD7F421219597F431219537D0F7F5E
:1018C600221200037FA11219AB7F801219AB7F98F9
:0F18D6001219AB750868750900E4F50AF50B22C5
:0A123B008F5C8D5D8B5E8A5F896019
:10124500E4F5641219BE8F67E564C3956740030230
:101255001415AB5EAA5FA9608564827583001205CB
:101265004FF561856482758300A312054FF562E52C
:101275005C131313541FFDAF5D12192BC3E5616495
:10128500809480500302133EE561648094A050343D
:10129500E56124F8601C24FB6004240370260564C2
:1012A500E4F55CE55DC39470509E740C255DF55DB9
:1012B50080960564E55DD39408400674F8255DF5D0
:1012C5005DE4F563E4F565C3E5616480949F404B97
:1012D500E561FD3395E08D82F583740C1205AEE56D
:1012E500822565F582E43583F583E582248FF582D1
:1012F500E5833404F583E493F56312191EE55C5424
:1013050007700C7FB01219ABAF631219A6800CE5FC
:101315005D2565FBAD5CAF6312173D12191E0565B2
:10132500E565C3940C40A0E56164087003021410E0
:101335007408255CF55C021410E4F565E56575F047
:101345001AA42483F582E4340AF583E493B5611580
:10135500E56575F01AA42484F582E4340AF583E47E
:1013650093656260070565E565B401D0E4F566E55A
:101375005D2566121922E565C394015038E565754A
:10138500F01AA42485F582E4340AF58375F002E5A4
:10139500661205BFE493F561E56575F01AA4248628
:1013A500F582E4340AF58375F002E5661205BFE4BB
:1013B50093F5628005E4F562F561E55C5407700C10
:1013C5007FB01219ABAF611219A6800CE55D2566D9
:1013D500FBAD5CAF6112173DE55C2408FD54077059
:1013E5000C7FB01219ABAF621219A6800AE55D2514
:1013F50066FBAF6212173D0566E566C3940C5003A4
:10140500021374740C255CF55C0564056402124DC9
:0114150022B4
:06173D008F688D698B6AC4
:10174300E5695407F56EC37408956EF56DE5691385
:101753001313541FFDAF6A12192B7FB11219AB1269
:101763001A0D8F6B121A0D8F6CAF6D74FFA80708DB
:101773008002C333D8FC556BFFAE6EE568A806083C
:101783008002C313D8FC4FF56BAF6E74FFA8070834
:101793008002C313D8FC556CFFAE6DE568A806083C
:1017A3008002C333D8FC4FF56C7FB21219ABE569E5
:1017B300131313541FFDAF6A12192B7FB01219AB09
:0F17C300AF6B1219E7AF6C1219E77FB20219ABC7
:0816A1008D5F8B5C8A5D895EA0
:1016A90090000112054F756500F566E4F561F56274
:1016B900C3E5629566E56195655078E55F2562FF4A
:1016C900AD6012192B7FB01219ABAB5CAA5DA95E94
:1016D900120536756700F568E4F563F564E568AEEB
:1016E900677803CEC313CE13D8F9FFC3E5649FE52A
:1016F900639E502FAC61AD6212058EE5642FCFE574
:10170900633ECF2402CF3400AB5CAA5DA95E8F8211
:10171900F58312054FFF1219E70564E56470BE05EC
:101729006380BA7FB21219AB0562E5627082056106
:031739000216B9DC
:01173C00228A
:10002600020290E86480F8E933E83360110460F076
:10003600ED33EC337009E8FCE9FDEAFEEBFF220440
:1000460060DED3EB9FEA9EE99DE8C2E78CF0C2F73B
:1000560095F0400CE8CCF8E9CDF9EACEFAEBCFFB07
:1000660012025B85D0F05804700320D5B3E8047003
:10007600075002B2D502029A92D5EC0460F7E4CC9E
:10008600C0E0C398F8603B94186008400DD0E0FBD0
:10009600020272E4FBFAC9FC8028E830E406E4C9EF
:1000A600FBE4CAFCE830E305E4C9CACBFCE8540724
:1000B6006010F8C3E913F9EA13FAEB13FBEC13FC2F
:1000C600D8F130F52FC3E49CFCEF9BFFEE9AFEEDD2
:1000D60099FDD0E0FBEF4E4D4C701222DB0302027D
:1000E60097EC2CFCEF33FFEE33FEED33FDED30E7FE
:1000F600EB020272EF2BFFEE3AFEED39FDD0E0FB8C
:1001060050130BBB000302029AED13FDEE13FEEF34
:0801160013FFEC13FC0202725E
:10011E00EC4D6011E8497017ED33EC3304600DE4DB
:10012E00FCFFFEFD22E933E8330470F80202901260
:10013E00025B58046009E4CC248150062850090261
:10014E00029A284003020297C0E0EB4A7044B9803D
:10015E0006D0E0FB020286EF4E701CBD8008EBFF5E
:10016E00EAFEE9FD80EBE98DF0A4FEE5F002020760
:10017E00E9CDF9EAFEEBFFEF89F0A4FCE5F0CE89BC
:10018E00F0A42EFFE435F0CD89F0A42DFEE435F079
:10019E008067EF4E7005BD80D780C3EF8BF0A4ACA7
:1001AE00F0EE8BF0A42CFCE435F0F8EF8AF0A42CE2
:1001BE00E5F038FCE433CB8DF0A42CFCE5F03BF8F5
:1001CE00EE8AF0A42CFCE5F038F8E433CF89F0A4E5
:1001DE002CFCE5F038CF3400CE89F0A42FFFE5F0EB
:1001EE003EFEE433C98DF0A42EFEE5F039CD8AF043
:1001FE00A42FFFE5F03EFEE43DFD33D0E0FB5007BB
:10020E000BBB000F02029AEC2CFCEF33FFEE33FE19
:06021E00ED33FD02027247
:10022400EDD2E7CD33EC3392D524814006E4FFFED2
:10023400FDFC22FCE4CFCECDCC24E0501174FF8031
:10024400EDC3CC13CCCD13CDCE13CECF13CF0470CE
:07025400F030D5DE0205A029
:100A9D00E573245FF8E6057322785C300702785F12
:100AAD00E475F0011205CB0205362000EB7F2ED246
:100ABD00008018EF540F2490D43440D4FF30040B31
:100ACD00EF24BFB41A0050032461FFE574600215D2
:100ADD00740577E5777002057630070D785CE4755F
:100AED00F0011205CBEF02057C02197F7403D207CA
:100AFD008003E4C207F5738B5C8A5D895EE4F5744F
:100B0D00F576F577E57460077F20120AD880F575C4
:100B1D0075FFC201C200C202C203C205C206C208ED
:100B2D00120AA6FF700D3007057F00120AE9AF7794
:100B3D00AE7622B4255FC2D5C204120AA6FF24D018
:100B4D00B40A00501A75F00A787430D50508B6FF4E
:100B5D000106C6A426F620D5047002D20380D9243E
:100B6D00CFB41A00EF5004C2E5D204020DD6D20163
:100B7D0080C6D20080C0D20280BCD2D580BAD20548
:100B8D0080B47F20120AD82002077401B57400408A
:100B9D00F1120A9DFF120AD8020B11D208D206805B
:100BAD0095120A9DFB120A9DFA120A9DF94A4B7085
:100BBD000679CD7A0E7BFF20022EE574602A7E0029
:100BCD008E8275830012054F60060EEE657570F00E
:100BDD00C2D5EBC0E0EAC0E0E9C0E0EE120E36D0BF
:100BED00E0F9D0E0FAD0E0FB120536FF60AAEBC0C9
:100BFD00E0EAC0E0E9C0E0120AD8D0E02401F9D063
:100C0D00E03400FAD0E0FBE5750460DCD575D980E1
:100C1D0087D20280A2120E1960F7E57570010412D9
:100C2D0002A5A975600DE575600914F575120EC064
:100C3D00EF60F3EA30E702F404C3995077EAF42544
:100C4D00750430E701E404F575800D120E1960C1CD
:100C5D00EA057525751202A5EA7872F630E701E40A
:100C6D00257504D5750420050114120E36E4C0E077
:100C7D00120EC07872E6601320E70714F6120AC050
:100C8D00802204F6D0E014C0E07F00120AC0E575A2
:100C9D006007120AB71575800B300503120AB7D01D
:100CAD00E0020B11D0E00480C5120E1960A0E575AD
:100CBD00041202A57872EAF6E575200502600104BA
:050CCD002404120E36A4
:100CD20074FF04C0E0120EC0120AC0E575200502BE
:100CE2006003120AB7D0E0B575E87F45120ACA78E8
:100CF20072E67F2B30E7047F2DF404C0E0120AD89D
:100D0200D0E075F00A84C0F0120AC1D0E0120AC124
:100D1200020B11791080027908C206C2088008D23B
:100D2200D5790A8004790AC2D5E575047002F57591
:100D3200E4FAFDFEFF120A9DFC7B08200113120A51
:100D42009DFD7B1030000A120A9DFE120A9DFF7B58
:100D520020EC3382D592D55013C3E43000069FFFB6
:100D6200E49EFEE42001039DFDE49CFCE4CBF8C27A
:100D720001EC700CCFCECDCCE824F8F870F38017DC
:100D8200C3EF33FFEE33FEED33FDEC33FCEB33FB0D
:100D9200994002FB0FD8E9EB300105F8D0E0C448D6
:100DA200B201C0E00AEC4D4E4F78207B0070C2EADF
:100DB200B5750040BCC0E0120E38D0F0D0E0200182
:100DC20004C4C0E0C4B201C0F0120AC1D0F0D5F030
:100DD200EB020B111205DB0BAE530D15580B7F4CBA
:100DE2000B7B420D194F0D21440D21490B94430DEC
:100DF20027550C58460CB6450C22470EED500B8376
:100E02002D0B872E0BAA2B0B8B230BA8200ED62A79
:100E12000B434800000BA2E575B4FF03757506127B
:100E22000A9DFC120A9DFD120A9DFE120A9DFF7880
:100E32006B0202D4790AA2D5200314300509B91035
:100E4200020404B9080104A2D520060250010420BC
:100E520002689202B574005034C0E07F203003195A
:100E62007F30A20272067205500F120E8FC202C2AA
:100E720006C205C2087F30800F300503E9C0E012C8
:100E82000AD8300503D0E0F9D0E0B574CC300517AC
:100E92007F30B9100C120AD87F583004077F78804F
:100EA20003B90803120AD83002057F2D020AD87F3F
:100EB200202008F87F2B2006F322920280CF7F00A9
:100EC200B407005005246BF8E6FF22286E756C6C9F
:100ED2002900D201120A9D3001F8C201787430D57E
:100EE2000108F6020B432D50434958120A9D240370
:100EF200B405004001E4900EE893120AC9743A1254
:0A0F02000AC9D203757404020D152C
:10185E00D2008B5C8A5D895E12189AC0E0FF121965
:10186E00FAD0E040F3121522400122ECC0E0EDC0A8
:10187E00E0EEC0E0EFC0E012189AD0F0AFF0D0F07A
:10188E00AEF0D0F0ADF0D0F0ACF080D9E475F00150
:08189E00785C1205CB0205364F
:10025B00E9D2E7C933E833F892D5EDD2E7CD33ECE9
:07026B0033FC5002B2D52262
:10027200EC30E7100FBF000C0EBE00080DBD0004ED
:100282000BEB6014A2D5EB13FCED92E7FD2274FF99
:10029200FCFDFEFF22E480F8A2D574FF13FC7D80F2
:0302A200E480EF06
:1002A500F920E72824F950037907E4F42402FB1820
:1002B500DBFDE624FB5014E9600DE4F618E604F6D0
:0F02C500B40A08E4F6D9F57401F60A22C2D5226C
:1002D400ED33EC3392D5FA602AB4FF33EDC2E77BF9
:1002E400FF60067A0279F9E4227A03790220D504C0
:1002F4007A0279FD224E614E002B494E46002D496B
:100304004E4600E47A08F608DAFC7B00740722E81B
:10031400C0E0ECC0E0EDC0E0EEC0E0EFC0E0EA75A4
:10032400F010A4CAABF075F04DA42BFBE435F0FC3F
:10033400EA2410FAEB34C5FBEC34D9FCEDC2E7FF38
:1003440075F056A4F42411C5F0F434C58FF0A42A32
:10035400E5F03BE43CF620E7141204F6D0E0FFD0CD
:10036400E0FED0E0FDD0E0FC1203DA8014F40412C5
:1003740004F6D0E0FFD0E0FED0E0FDD0E0FC1201B6
:100384001ED0E0F8E6FAEDD2E7CD33EC332482FB5D
:10039400E4C3CF33CFCE33CECD33CD33DBF37B07C2
:1003A40075F00A846004F6081B0AE5F0F6088FF07D
:1003B400740AA4FFACF08EF0740AA42CFEACF050C6
:1003C400010C8DF0740AA42CFDE435F0F608DBDE94
:0303D40074072289
:10150F00C201C202C203C204F9E4F55FF560FCFD3B
:10151F00FEFFE91000EA20030CB42D04D203D322FE
:10152F00B42B02D32224D0504794095041240A30BF
:10153F000415F88560F0740AA42872E74051C5F0CD
:10154F00704D85F060D322D202C0E0E4FBFA79201F
:10155F00784112011EECF8EDF9EEFAEFFBD0E0FC4A
:10156F00E412049212002D3001B4155FD322240A25
:10157F00200420B4FE0720011AD201D32224EB60ED
:10158F000424E0700EA2039201D204C203D322C33B
:10159F00020290E430040BE560300302F404A20170
:1015AF0092033002EA255F20D2E5A2E792045002AF
:1015BF00F404B4260050D8CCC0E0EDC0E0EEC0E09B
:1015CF00EFC0E0EC1204F6D0E0FFD0E0FED0E0FD7B
:1015DF00D0E0FC20040512011E80031203DA300351
:0615EF0003120477C32281
:1003D70002029AEC5D046005E8590470030202907A
:1003E70012025B580460F6EC4860F2EC7004FDFE04
:1003F700FF22C860DB2481C85009C39860025006F9
:100407000202979850CAF582E9294B4A7005AB82D8
:1004170002028675F0007C1A7880C3EF9BEE9AED96
:1004270099400DC3EF9BFFEE9AFEED99FDE842F070
:10043700DC23ACF0D0E0FFD0E0FED0E0FDAB8220C3
:10044700E7101BEB60BAEC2CFCEF33FFEE33FEED4D
:1004570033FD020272E803F830E705C0F075F000DB
:10046700EF2FFFEE33FEED33FD40B830E7C280AA31
:10047700ED33EC33600A047003BD8004ECB2E7FC93
:010487002252
:1004880075F020800E75F010800575F0087D007EEF
:10049800007F003392D530D5031205A0EC3340100D
:1004A800EF33FFEE33FEED33FDEC33FCD5F0ED22F8
:0E04B800E5F0247EA2D513CC92E7CDCEFF2234
:1004C6003F8000004120000042C80000447A00003E
:1004D600461C400047C35000497424004B189680C0
:1004E6004CBEBC205A0E1BCA6753C21C749DC5AEB7
:1004F600FB60065407601C2323120524EB54386066
:100506000912051012051F12011EECF8EDF9EEFA9C
:10051600EFCB22EB12051F80F1543803241C900404
:10052600C6FE93FC0EEE93FD0EEE930ECE93FF22C7
:030000000217D212
:0C17D200787FE4F6D8FD758177021819C5
:10053600BB010689828A83E0225002E722BBFE02C3
:09054600E32289828A83E49322F6
:10054F00BB010CE58229F582E5833AF583E0225061
:10055F0006E92582F8E622BBFE06E92582F8E222AB
:0D056F00E58229F582E5833AF583E49322C5
:10057C00BB010689828A83F0225002F722BBFE015E
:02058C00F32258
:10058E00EF8DF0A4A8F0CF8CF0A428CE8DF0A42E81
:02059E00FE223B
:0E05A000C3E49FFFE49EFEE49DFDE49CFC226C
:1005AE00F5F0C582A4C582C5F0C583A42583F58365
:0105BE00221A
:0C05BF00A42582F582E5F03583F5832247
:1005CB00FAE6FB0808E6F925F0F618E6CA3AF62231
:1005DB00D083D082F8E4937012740193700DA3A3AF
:1005EB0093F8740193F5828883E4737402936860C3
:0605FB00EFA3A3A380DFC3
:10197F00EFB40A07740D12198A740A309811A899D6
:10198F00B8130CC2983098FDA899C298B811F630C8
:07199F0099FDC299F59922A0
:1019FA00EFC394094005EF940E4003BF2003D38040
:031A0A0001C322F3
:1019BE00E4FFFE120536600C0FEF70010E09E970A0
:0519CE00F20A80EF2287
:1017DE000215F5E493A3F8E493A34003F68001F217
:1017EE0008DFF48029E493A3F85407240CC8C3330C
:1017FE00C4540F4420C8834004F456800146F6DFDB
:10180E00E4800B01020408102040809018E5E47E6D
:10181E00019360BCA3FF543F30E509541FFEE493CF
:10182E00A360010ECF54C025E060A840B8E493A396
:10183E00FAE493A3F8E493A3C8C582C8CAC583CAC1
:10184E00F0A3C8C582C8CAC583CADFE9DEE780BE79
:01191D0000C9
:00000001FF
