:0D045500C0F9A4B0999282F88090FFA1C672
:0B04620006090B0C0A01050001080050
:10043F00EF1FAA0670011E4A600BE4FDEDC394780E
:05044F0050EE0D80F7E6
:010454002285
:10036500E4F50FFC7510FF758901758CF0758A60D1
:1003750075A882D28CE590651060FA859010209062
:10038500157F0A7E0012043F20901EE50FC3940FCF
:100395005017050F80132094107F0A7E0012043F2A
:1003A500209406E50F6002150FE50FF4F5B0AC0FCC
:1003B500E4120216E4FBFAF9783F120106E4FBFAAF
:1003C50079C0783F120015E4FBFA792078411201D3
:1003D5000612024AAC07EC75F00A84F50CEC75F0D0
:0703E5000A8485F00D808EF3
:03000B000203EC01
:0F03EC00C0E0C083C082C0D075D000C000C00781
:1003FB00758CF0758A6075A0FF74092508F8E69076
:10040B00045593F580E508B4030353807FAF08745C
:10041B0001A807088002C333D8FCF4F5A00508E552
:07042B0008B4060375080088
:0D043200D007D000D0D0D082D083D0E032EF
:10000E000202B6E86480F8E933E83360110460F068
:10001E00ED33EC337009E8FCE9FDEAFEEBFF220458
:10002E0060DED3EB9FEA9EE99DE8C2E78CF0C2F753
:10003E0095F0400CE8CCF8E9CDF9EACEFAEBCFFB1F
:10004E0012028185D0F05804700320D5B3E80470F5
:10005E00075002B2D50202C092D5EC0460F7E4CC90
:10006E00C0E0C398F8603B94186008400DD0E0FBE8
:10007E00020298E4FBFAC9FC8028E830E406E4C9E1
:10008E00FBE4CAFCE830E305E4C9CACBFCE854073C
:10009E006010F8C3E913F9EA13FAEB13FBEC13FC47
:1000AE00D8F130F52FC3E49CFCEF9BFFEE9AFEEDEA
:1000BE0099FDD0E0FBEF4E4D4C701222DB03020295
:1000CE00BDEC2CFCEF33FFEE33FEED33FDED30E7F0
:1000DE00EB020298EF2BFFEE3AFEED39FDD0E0FB7E
:1000EE0050130BBB00030202C0ED13FDEE13FEEF27
:0800FE0013FFEC13FC02029851
:10010600EC4D6011E8497017ED33EC3304600DE4F3
:10011600FCFFFEFD22E933E8330470F80202B61252
:10012600028158046009E4CC248150062850090253
:1001360002C02840030202BDC0E0EB4A7044B98009
:1001460006D0E0FB0202ACEF4E701CBD8008EBFF50
:10015600EAFEE9FD80EBE98DF0A4FEE5F00201EF91
:10016600E9CDF9EAFEEBFFEF89F0A4FCE5F0CE89D4
:10017600F0A42EFFE435F0CD89F0A42DFEE435F091
:100186008067EF4E7005BD80D780C3EF8BF0A4ACBF
:10019600F0EE8BF0A42CFCE435F0F8EF8AF0A42CFA
:1001A600E5F038FCE433CB8DF0A42CFCE5F03BF80D
:1001B600EE8AF0A42CFCE5F038F8E433CF89F0A4FD
:1001C6002CFCE5F038CF3400CE89F0A42FFFE5F003
:1001D6003EFEE433C98DF0A42EFEE5F039CD8AF05B
:1001E600A42FFFE5F03EFEE43DFD33D0E0FB5007D3
:1001F6000BBB000F0202C0EC2CFCEF33FFEE33FE0C
:06020600ED33FD02029839
:10020C0075F020800E75F010800575F0087D007E6D
:10021C00007F003392D530D5031202CBEC33401063
:10022C00EF33FFEE33FEED33FDEC33FCD5F0ED2276
:0E023C00E5F0247EA2D513CC92E7CDCEFF22B2
:10024A00EDD2E7CD33EC3392D524814006E4FFFEAC
:10025A00FDFC22FCE4CFCECDCC24E0501174FF800B
:10026A00EDC3CC13CCCD13CDCE13CECF13CF0470A8
:07027A00F030D5DE0202CBDB
:10028100E9D2E7C933E833F892D5EDD2E7CD33ECC3
:0702910033FC5002B2D5223C
:10029800EC30E7100FBF000C0EBE00080DBD0004C7
:1002A8000BEB6014A2D5EB13FCED92E7FD2274FF73
:1002B800FCFDFEFF22E480F8A2D574FF13FC7D80CC
:0302C800E480EFE0
:030000000202D920
:0C02D900787FE4F6D8FD75811002032048
:0E02CB00C3E49FFFE49EFEE49DFDE49CFC2244
:1002E500020365E493A3F8E493A34003F68001F2C7
:1002F50008DFF48029E493A3F85407240CC8C3331A
:10030500C4540F4420C8834004F456800146F6DFE8
:10031500E4800B0102040810204080900462E47E12
:10032500019360BCA3FF543F30E509541FFEE493DD
:10033500A360010ECF54C025E060A840B8E493A3A4
:10034500FAE493A3F8E493A3C8C582C8CAC583CACF
:10035500F0A3C8C582C8CAC583CADFE9DEE780BE87
:01046D00008E
:00000001FF
