:1008DE0000E2E5E8EAECEEF0F1F3F4F5F6F7F800F5
:0E08EE00040C09140208060216051A01040281
:03091200010800D9
:1008FC00EF1FAA0670011E4A600BE4FDEDC394784D
:05090C0050EE0D80F724
:0109110022C3
:10088C0075A888E4F58920B6FD7F0A7E001208FC65
:10089C0020B6F3750801E508C3940F50E9D28E7F9A
:1008AC00F47E011208FCC28E7F327E001208FC0519
:0308BC000880E3CE
:03001B000208BF19
:1008BF00C0E0C083C082B2A0E5089008DE93F58D3A
:0F08CF00E5089008ED93F58BD082D083D0E0320E
:03000000020800F3
:0C080000787FE4F6D8FD758108020847F7
:10080C0002088CE493A3F8E493A34003F68001F26E
:10081C0008DFF48029E493A3F85407240CC8C333ED
:10082C00C4540F4420C8834004F456800146F6DFBC
:10083C00E4800B0102040810204080900912E47E31
:10084C00019360BCA3FF543F30E509541FFEE493B1
:10085C00A360010ECF54C025E060A840B8E493A378
:10086C00FAE493A3F8E493A3C8C582C8CAC583CAA3
:10087C00F0A3C8C582C8CAC583CADFE9DEE780BE5B
:0109150000E1
:00000001FF
