:100FC500503A2020202020202020573A0053554D0C
:0A0FD5002824293A00252D3364007A
:08101A00024300000245000042
:100C4A00120F7F7BFF7A0F79C5E4FDFF120EEC7B52
:100C5A00FF7A0F79D2E4FD7F01120EECE4FF120E47
:100C6A00187547008F48AC47AD48EC1202A6E4FB62
:100C7A00FA792078411200FB7B007A8079FF784369
:100C8A001202047B337A3379A378401202047B0A76
:100C9A007AD7792378BD12000A7BED7AD3797178F5
:100CAA003B1202047BCD7ACC795C78C012000A121E
:100CBA0002DF8E458F46752AFF752B0F752CDA8554
:100CCA00452D85462E7B007A0079121206757B0027
:100CDA007A0079127D0DE4FF120EEC120B6EE544D8
:100CEA0065487004E5436547600C120D96854743D5
:100CFA0085484412103B7F327E00120FAF020C6609
:100F5900252E32660020202020202020202000205D
:100F690020202020200030313220333435203637FC
:060F79003820392E430070
:09102200010A00010800010907A0
:0D103B00E4FF63A0087E46DEFE0FBFC8F58F
:011048002285
:100D96007B007A00790B120FDFEF4E700AF526F50D
:100DA60025F524F523801A752A00752B00752C006D
:100DB6007B007A00790B120E868F268E258D248C69
:100DC60023752A00752B00752C007B007A0079129A
:100DD600120E86752AFF752B0F752C59AB26AA2580
:100DE600A924A8231200FB8F308E2F8D2E8C2D7BED
:100DF600007A0079161206757BFF7A0F795E7D07F9
:100E06007F01120EEC7B007A0079167D077F0102C6
:020E16000EECE0
:100B6E00E59020E403020C4912103BE590540F90DF
:100B7E000F6F93F522FF12102C400DE522642E60AC
:100B8E0003020C12E508707C7B007A00790B120FC1
:100B9E00DFEF64034E700DE522642E6007E50870EA
:100BAE0003020C49E50AC395095044E50A7024E591
:100BBE002264306005E522B42E19AF0A050A740BC3
:100BCE002FF8763075222EAF0A050A740B2FF876A1
:100BDE002E800AAF0A050A740B2FF8A622740B2575
:100BEE000AF8E4F6FB7A00790B7D03FF120EECE5B2
:100BFE0022642E7039E5087035E50A2402F5097570
:100C0E000801802AE52264437024F50AF508750967
:100C1E0005F50BF5167BFF7A0F79687D03FF120E33
:100C2E00EC7BFF7A0F795E7D077F01120EECE5906B
:0B0C3E0030E403120D96E59020E4FB6B
:010C49002288
:0C0FA300C2A1C2A28C80D2A27F017E00FD
:100FAF00EF1FAA0670011E4A600BE4FDEDC3947893
:050FBF0050EE0D80F76B
:010FC400220A
:100FF4007580FFC2A0D2A1120FA9AF80C2A2EF20B8
:02100400E7EE15
:0110060022C7
:0D104900AC07120FF4C2A0120FA3C2A22226
:0D105600AC07120FF4D2A0120FA3C2A22209
:100F7F007F38121049120FAB7F01121049120FABBD
:100F8F007F06121049120FAB7F0C1210497F017EA2
:040F9F0000020FAF8E
:0A0EEC008F278D288B298A2A892B75
:100EF600E4F52CE5277006E52844808009E527B44B
:100F06000108E52844C0FF121049E4F52CAB29AAD4
:100F16002AA92B852C8275830012052CFF600C12E2
:0B0F26001056052CE52CC3941040E28F
:010F3100229D
:100E1800E4FEFDC2A5C2A6D2A70000D2A60000C269
:100E2800A6EF24FF92A70000D2A60000C2A6C2A780
:100E38000000D2A60000C2A6D2A70000E4FFD2A6F6
:100E48000000C2A60000EE25E0FEA2A7E4334EFE95
:100E58000FBF08EAE4FFA2A7E433FCA80708800252
:100E6800C333D8FC4205D2A60000C2A600000FBFBB
:0D0E780008E4D2A5EEB50503FF80027F005F
:010E8500224A
:1000030002034BE86480F8E933E83360110460F0DD
:10001300ED33EC337009E8FCE9FDEAFEEBFF220463
:1000230060DED3EB9FEA9EE99DE8C2E78CF0C2F75E
:1000330095F0400CE8CCF8E9CDF9EACEFAEBCFFB2A
:1000430012031685D0F05804700320D5B3E804706A
:10005300075002B2D502035592D5EC0460F7E4CC05
:10006300C0E0C398F8603B94186008400DD0E0FBF3
:1000730002032DE4FBFAC9FC8028E830E406E4C956
:10008300FBE4CAFCE830E305E4C9CACBFCE8540747
:100093006010F8C3E913F9EA13FAEB13FBEC13FC52
:1000A300D8F130F52FC3E49CFCEF9BFFEE9AFEEDF5
:1000B30099FDD0E0FBEF4E4D4C701222DB0302039F
:1000C30052EC2CFCEF33FFEE33FEED33FDED30E766
:1000D300EB02032DEF2BFFEE3AFEED39FDD0E0FBF3
:1000E30050130BBB0003020355ED13FDEE13FEEF9C
:0800F30013FFEC13FC02032DC6
:1000FB00EC4D6011E8497017ED33EC3304600DE4FF
:10010B00FCFFFEFD22E933E8330470F802034B12C7
:10011B00031658046009E4CC2481500628500902C8
:10012B000355284003020352C0E0EB4A7044B980E8
:10013B0006D0E0FB020341EF4E701CBD8008EBFFC5
:10014B00EAFEE9FD80EBE98DF0A4FEE5F00201E4A7
:10015B00E9CDF9EAFEEBFFEF89F0A4FCE5F0CE89DF
:10016B00F0A42EFFE435F0CD89F0A42DFEE435F09C
:10017B008067EF4E7005BD80D780C3EF8BF0A4ACCA
:10018B00F0EE8BF0A42CFCE435F0F8EF8AF0A42C05
:10019B00E5F038FCE433CB8DF0A42CFCE5F03BF818
:1001AB00EE8AF0A42CFCE5F038F8E433CF89F0A408
:1001BB002CFCE5F038CF3400CE89F0A42FFFE5F00E
:1001CB003EFEE433C98DF0A42EFEE5F039CD8AF066
:1001DB00A42FFFE5F03EFEE43DFD33D0E0FB5007DE
:1001EB000BBB000F020355EC2CFCEF33FFEE33FE81
:0601FB00ED33FD02032DAF
:10020100020355EC5D046005E85904700302034BD9
:10021100120316580460F6EC4860F2EC7004FDFE1F
:10022100FF22C860DB2481C85009C39860025006D0
:100231000203529850CAF582E9294B4A7005AB82F4
:1002410002034175F0007C1A7880C3EF9BEE9AEDB2
:1002510099400DC3EF9BFFEE9AFEED99FDE842F048
:10026100DC23ACF0D0E0FFD0E0FED0E0FDAB82209B
:10027100E7101BEB60BAEC2CFCEF33FFEE33FEED25
:1002810033FD02032DE803F830E705C0F075F000F7
:10029100EF2FFFEE33FEED33FD40B830E7C280AA09
:1002A10075F020800E75F010800575F0087D007ED8
:1002B100007F003392D530D50312056BEC3340102B
:1002C100EF33FFEE33FEED33FDEC33FCD5F0ED22E1
:0E02D100E5F0247EA2D513CC92E7CDCEFF221D
:1002DF00EDD2E7CD33EC3392D524814006E4FFFE17
:1002EF00FDFC22FCE4CFCECDCC24E0501174FF8076
:1002FF00EDC3CC13CCCD13CDCE13CECF13CF047013
:07030F00F030D5DE02056BA2
:10061900E53E242AF8E6053E227827300702782AA3
:10062900E475F0011205790205132000EB7F2ED243
:10063900008018EF540F2490D43440D4FF30040BB9
:10064900EF24BFB41A0050032461FFE53F6002158F
:100659003F0542E5427002054130070D7827E475F0
:10066900F001120579EF020559020F327403D2071E
:100679008003E4C207F53E8B278A288929E4F53FE0
:10068900F541F542E53F60077F2012065480F57574
:1006990040FFC201C200C202C203C205C206C208AB
:1006A900120622FF700D3007057F00120665AF4262
:1006B900AE4122B4255FC2D5C204120622FF24D05E
:1006C900B40A00501A75F00A783F30D50508B6FF0C
:1006D9000106C6A426F620D5047002D20380D924C7
:1006E900CFB41A00EF5004C2E5D204020952D20174
:1006F90080C6D20080C0D20280BCD2D580BAD205D1
:1007090080B47F201206542002077401B53F0040CF
:10071900F1120619FF12065402068DD208D206807C
:1007290095120619FB120619FA120619F94A4B70A5
:100739000679497A0A7BFF20022EE53F602A7E006E
:100749008E8275830012052C60060EEE654070F0EE
:10075900C2D5EBC0E0EAC0E0E9C0E0EE1209B2D0D0
:10076900E0F9D0E0FAD0E0FB120513FF60AAEBC074
:10077900E0EAC0E0E9C0E0120654D0E02401F9D073
:10078900E03400FAD0E0FBE5400460DCD540D980D4
:1007990087D20280A212099560F7E5407001041220
:1007A9000360A940600DE540600914F540120A3C58
:1007B900EF60F3EA30E702F404C3995077EAF425CD
:1007C900400430E701E404F540800D12099560C149
:1007D900EA05402540120360EA783DF630E701E476
:1007E900254004D54004200501141209B2E4C0E0F3
:1007F900120A3C783DE6601320E70714F612063C1E
:10080900802204F6D0E014C0E07F0012063CE540E7
:1008190060071206331540800B300503120633D0EA
:10082900E002068DD0E00480C512099560A0E5407C
:1008390004120360783DEAF6E540200502600104F0
:0508490024041209B2B5
:10084E0074FF04C0E0120A3C12063CE5402005028B
:10085E006003120633D0E0B540E87F4512064678B5
:10086E003DE67F2B30E7047F2DF404C0E0120654E2
:10087E00D0E075F00A84C0F012063DD0E012063DBD
:10088E0002068D791080027908C206C2088008D24D
:10089E00D5790A8004790AC2D5E540047002F54084
:1008AE00E4FAFDFEFF120619FC7B08200113120666
:1008BE0019FD7B1030000A120619FE120619FF7B75
:1008CE0020EC3382D592D55013C3E43000069FFF3F
:1008DE00E49EFEE42001039DFDE49CFCE4CBF8C203
:1008EE0001EC700CCFCECDCCE824F8F870F3801765
:1008FE00C3EF33FFEE33FEED33FDEC33FCEB33FB96
:10090E00994002FB0FD8E9EB300105F8D0E0C4485E
:10091E00B201C0E00AEC4D4E4F78207B0070C2EA67
:10092E00B5400040BCC0E01209B4D0F0D0E02001C8
:10093E0004C4C0E0C4B201C0F012063DD0F0D5F040
:10094E00EB02068D1205D8072A5308915806FB4C68
:10095E0006F74208954F089D44089D490710430825
:10096E00A35507D446083245079E470A695006FF2D
:10097E002D07032E07262B0707230724200A522AAA
:10098E0006BF480000071EE540B4FF03754006127F
:10099E000619FC120619FD120619FE120619FF7829
:1009AE003602038F790AA2D5200314300509B91037
:1009BE00020404B9080104A2D52006025001042045
:1009CE0002689202B53F005034C0E07F2030031918
:1009DE007F30A20272067205500F120A0BC202C2BB
:1009EE0006C205C2087F30800F300503E9C0E01251
:1009FE000654300503D0E0F9D0E0B53FCC300517F2
:100A0E007F30B9100C1206547F583004077F78805F
:100A1E0003B908031206543002057F2D0206547FD7
:100A2E00202008F87F2B2006F322920280CF7F0031
:100A3E00B4070050052436F8E6FF22286E756C6C5C
:100A4E002900D2011206193001F8C201783F30D5C3
:100A5E000108F60206BF2D50434958120619240309
:100A6E00B405004001E4900A6493120645743A12EC
:0A0A7E000645D203753F04020891FB
:100E8600D2008B278A288929120EE0C0E0FF1210B3
:100E960007D0E040F3120A9B401F782AE6FB08E6DB
:100EA600FA08E6F94A4B60107827E6C0E008E6C083
:100EB600E008E6C0E012058922ECC0E0EDC0E0EEF5
:100EC600C0E0EFC0E0120EE0D0F0AFF0D0F0AEF030
:100ED600D0F0ADF0D0F0ACF080BBE475F00178272F
:060EE6001205790205135C
:10031600E9D2E7C933E833F892D5EDD2E7CD33EC2D
:0703260033FC5002B2D522A6
:10032D00EC30E7100FBF000C0EBE00080DBD000431
:10033D000BEB6014A2D5EB13FCED92E7FD2274FFDD
:10034D00FCFDFEFF22E480F8A2D574FF13FC7D8036
:03035D00E480EF4A
:10036000F920E72824F950037907E4F42402FB1864
:10037000DBFDE624FB5014E9600DE4F618E604F614
:0F038000B40A08E4F6D9F57401F60A22C2D522B0
:10038F00ED33EC3392D5FA602AB4FF33EDC2E77B3D
:10039F00FF60067A0379B4E4227A0379BD20D5048D
:1003AF007A0379B8224E614E002B494E46002D49F3
:1003BF004E4600E47A08F608DAFC7B00740722E860
:1003CF00C0E0ECC0E0EDC0E0EEC0E0EFC0E0EA75E9
:1003DF00F010A4CAABF075F04DA42BFBE435F0FC84
:1003EF00EA2410FAEB34C5FBEC34D9FCEDC2E7FF7D
:1003FF0075F056A4F42411C5F0F434C58FF0A42A77
:10040F00E5F03BE43CF620E7141204D3D0E0FFD034
:10041F00E0FED0E0FDD0E0FC1202048014F40412E0
:10042F0004D3D0E0FFD0E0FED0E0FDD0E0FC12001E
:10043F00FBD0E0F8E6FAEDD2E7CD33EC332482FBC4
:10044F00E4C3CF33CFCE33CECD33CD33DBF37B0706
:10045F0075F00A846004F6081B0AE5F0F6088FF0C1
:10046F00740AA4FFACF08EF0740AA42CFEACF0500A
:10047F00010C8DF0740AA42CFDE435F0F608DBDED8
:03048F00740722CD
:100A8800C201C202C203C204F9E4F52DF52EFCFD31
:100A9800FEFFE91000EA20030CB42D04D203D32290
:100AA800B42B02D32224D0504794095041240A3051
:100AB8000415F8852EF0740AA42872E74051C5F091
:100AC800704D85F02ED322D202C0E0E4FBFA7920E3
:100AD80078411200FBECF8EDF9EEFAEFFBD0E0FC00
:100AE800E41202AB12000A3001B4152DD322240AF5
:100AF800200420B4FE0720011AD201D32224EB607F
:100B08000424E0700EA2039201D204C203D322C3CC
:100B180002034BE430040BE52E300302F404A20177
:100B280092033002EA252D20D2E5A2E79204500272
:100B3800F404B4260050D8CCC0E0EDC0E0EEC0E02C
:100B4800EFC0E0EC1204D3D0E0FFD0E0FED0E0FD2F
:100B5800D0E0FC2004051200FB80031202043003DD
:060B680003120492C322F7
:10049200ED33EC33600A047003BD8004ECB2E7FC78
:0104A2002237
:1004A3003F8000004120000042C80000447A000061
:1004B300461C400047C35000497424004B189680E3
:1004C3004CBEBC205A0E1BCA6753C21C749DC5AEDA
:1004D300FB60065407601C2323120501EB543860AC
:1004E300091204ED1204FC1200FBECF8EDF9EEFA2C
:1004F300EFCB22EB1204FC80F1543803241C90044C
:10050300A3FE93FC0EEE93FD0EEE930ECE93FF220D
:03000000020D0AE4
:0C0D0A00787FE4F6D8FD758148020D5199
:10051300BB010689828A83E0225002E722BBFE02E6
:09052300E32289828A83E4932219
:10052C00BB010CE58229F582E5833AF583E0225084
:10053C0006E92582F8E622BBFE06E92582F8E222CE
:0D054C00E58229F582E5833AF583E49322E8
:10055900BB010689828A83F0225002F722BBFE0181
:02056900F3227B
:0E056B00C3E49FFFE49EFEE49DFDE49CFC22A1
:10057900FAE6FB0808E6F925F0F618E6CA3AF62283
:10058900BB011A89828A83D0F0D0E0F8D0E0F9D093
:10059900E0FAD0E0FBE8C0E0C0F00206075016E937
:1005A900F8D083D082D0E0F9D0E0FAD0E0FBC08265
:1005B900C0830205FEBBFE16E9F8D083D082D0E0E5
:0F05C900F9D0E0FAD0E0FBC082C0830206102216
:1005D800D083D082F8E4937012740193700DA3A3B2
:1005E80093F8740193F5828883E4737402936860C6
:0605F800EFA3A3A380DFC6
:100F3200EFB40A07740D120F3D740A309811A89984
:100F4200B8130CC2983098FDA899C298B811F6301F
:070F520099FDC299F59922F7
:0F102C00EFC394304007EF943A50028001C32283
:10100700EFC394094005EF940E4003BF2003D3803C
:0310170001C322F0
:100FDF00E4FFFE120513600C0FEF70010E09E970AC
:050FEF00F20A80EF2270
:100D1600020C4AE493A3F8E493A34003F68001F29D
:100D260008DFF48029E493A3F85407240CC8C333DE
:100D3600C4540F4420C8834004F456800146F6DFAD
:100D4600E4800B010204081020408090101AE47E13
:100D5600019360BCA3FF543F30E509541FFEE493A2
:100D6600A360010ECF54C025E060A840B8E493A369
:100D7600FAE493A3F8E493A3C8C582C8CAC583CA94
:100D8600F0A3C8C582C8CAC583CADFE9DEE780BE4C
:01102B0000C4
:0905FE00EBF608EAF608E9F62222
:09060700EBF0A3EAF0A3E9F022F4
:09061000EBF208EAF208E9F2221B
:00000001FF
