:100D8700E4FFFEC291C294D2950000D2940000C243
:100D970094D2950000D2940000C294C2950000D26C
:100DA700940000C294D2950000FDD2940000C29432
:100DB7000000EF25E0FFA295E4334FFF0DBD08EAE1
:100DC700E4FDA295E433FCA805088002C333D8FCF0
:100DD7004206D2940000C29400000DBD08E4D291EF
:080DE700EFB5060280027F0057
:010DEF0022E1
:100BBC004C45447320466C617368205B4F4E5D203E
:100BCC0000412F4420526573756C743D25332E32D1
:100BDC00667600424545502E2E2E424545502E2E0F
:100BEC002E2E2E0053746172742053797374656DBC
:100BFC002E2E2E004E6F726B6961203731313020F2
:100C0C0044454D4F002D2D2D2D2D2D2D2D2D2D2DC4
:100C1C002D2D2D2D2D00312E466C617368204C45E9
:100C2C0044732020202000322E4469737020412F01
:100C3C00442056616C756500332E536F756E646578
:100C4C0072204F7574707574002D2D2D2D2D2D2D3A
:0A0C5C002D2D2D2D2D2D2D2D2D00F9
:10105400014300014101014200014000015500012A
:021064003F004B
:041024007F0A7E00C1
:10102800EF1FAA0670011E4A600BE4FDEDC3947819
:0510380050EE0D80F7F1
:01103D002290
:100E5500E580540765436041E5805407F543E58027
:100E650020E00E121024E58020E006D541037541EF
:100E750003E58020E113121024E58020E10B0541F4
:100E8500AF41EFB40403754101E58020E20B121078
:0A0E950024E58020E203854140229D
:100EE800E54265416041E54204FFE4FD120FEAAFC7
:100EF80042EF75F011A42411F9740C35F0FA7BFF58
:100F0800E4FD120F9AE54104FFE4FD120FEAAF4138
:100F1800EF75F011A42411F9740C35F0FA7BFF7DFC
:080F280001120F9A85414222DB
:100C6600E4FD7F07120FEA121024053FE53F640AF0
:100C76006003020CFAE4F53FE540B401107BFF7A0D
:100C86000B79BCE4FD120F9A63B0FF800375B0FFC9
:100C9600E54064027042120D87AC07E41201BEE41F
:100CA600FBFA79A0784012000EE4FBFA79807843CB
:100CB6001201178F2C8E2B8D2A8C297526FF7527EE
:100CC6000B7528CD7B007A0079441205CE7B007A1D
:100CD600007944E4FD120F9AE540B40311D28CD298
:100CE600A9D2AF7BFF7A0B79DFE4FD020F9AC28CA3
:040CF600C2A9C2AF1E
:010CFA0022D7
:100DF000120F30120F6A7D047F03120FEA7BFF7A15
:100E00000B79F0E4FD120F9AE4F5227F647E001264
:100E100010280522E522C3940A40F0E4F522E4FDFF
:100E2000AF22120FEAE52275F011A42400F9740C28
:100E300035F0FA7BFFE4FD120F9A0522E522C394F8
:100E40000640DB120EE8120E55E5406003120C66F8
:050E500012102480EEE9
:03000B0002108C54
:09108C00758C95758A00B285325D
:1009E100000000000000005F000000070007001485
:1009F1007F147F14242A7F2A122313086462364944
:100A01005522500005030000001C22410000412234
:100A11001C0014083E081408083E08080050300065
:100A2100000808080808006060000020100804029F
:100A31003E5149453E00427F4000426151494621B5
:100A410041454B311814127F1027454545393C4A21
:100A51004949300171090503364949493606494971
:100A6100291E0036360000005636000008142241C7
:100A7100001414141414004122140802015109062F
:100A8100324979413E7E1111117E7F494949363EF5
:100A9100414141227F4141221C7F494949417F090E
:100AA1000909013E4149497A7F0808087F00417FD1
:100AB10041002040413F017F081422417F404040D6
:100AC100407F020C027F7F0408107F3E4141413E7E
:100AD1007F090909063E4151215E7F0919294646D0
:100AE1004949493101017F01013F4040403F1F20F9
:100AF10040201F3F4038403F6314081463070870CB
:100B010008076151494543007F4141000204081033
:100B1100200041417F000402010204404040404066
:100B2100000102040020545454787F48444438386A
:100B310044444420384444487F3854545418087E6F
:100B41000901020C5252523E7F0804047800447D90
:100B510040002040443D007F1028440000417F4078
:100B6100007C041804787C08040478384444443830
:100B71007C14141408081414187C7C080404084814
:100B810054545420043F4440203C4040207C1C20CD
:100B910040201C3C4030403C44281028440C50501C
:100BA100503C4464544C44000836410000007F002E
:0B0BB100000041360800100808100882
:10103E00E4FFFED2A3C2A3EF25E0FFA2A4E4334F48
:05104E00FF0EBE08EEDC
:01105300227A
:10106700E4FEEF25E0FF92A4C2A3D2A30EBE08F2CE
:011077002256
:100F6A00E4F523E52344B0FF1210787F11121078BC
:100F7A007F02121078E4F524E4FF1210820524E5BA
:0F0F8A0024C3946040F20523E523C3940840D4A8
:010F99002235
:10100900D2A27F0A7E00121028C2A27F0A7E001295
:0B1019001028D2A27F647E0002102885
:100F30001210097FA61210787FA31210787FA112D9
:100F400010787FC01210787F221210787F811210E3
:100F5000787F2F1210787FE31210787F401210787C
:0A0F60007FA41210787FAF02107812
:0A107800C2A1C2A0121067D2A0228C
:0A108200D2A1C2A0121067D2A02272
:100FEA00EF24B0FF121078ED75F006A4FDC4540F7B
:0F0FFA004411FF121078ED540F4402FF021078DB
:020E9F00AC079E
:0E0EA100ECC394204040ECD3947F503AE4FB25
:100EAF0075F005ECA42BF582E435F0F583E582248B
:100EBF0041F582E5833409F583E493F527ED60036B
:080ECF006327FFAF2712108218
:100ED7000BBB05D4ED60047FFF8002E4FF12108294
:010EE70022E8
:100F9A008B238A2489258D26AB23AA24A92512040A
:100FAA00D660150525E5257002052414F91204D624
:090FBA00FFAD26120E9F80E0221B
:10000E00EC4D6011E8497017ED33EC3304600DE4EC
:10001E00FCFFFEFD22E933E8330470F802022712DA
:10002E0001F258046009E4CC2481500628500902DC
:10003E00023128400302022EC0E0EB4A7044B98020
:10004E0006D0E0FB02021DEF4E701CBD8008EBFFD8
:10005E00EAFEE9FD80EBE98DF0A4FEE5F00200F783
:10006E00E9CDF9EAFEEBFFEF89F0A4FCE5F0CE89CD
:10007E00F0A42EFFE435F0CD89F0A42DFEE435F08A
:10008E008067EF4E7005BD80D780C3EF8BF0A4ACB8
:10009E00F0EE8BF0A42CFCE435F0F8EF8AF0A42CF3
:1000AE00E5F038FCE433CB8DF0A42CFCE5F03BF806
:1000BE00EE8AF0A42CFCE5F038F8E433CF89F0A4F6
:1000CE002CFCE5F038CF3400CE89F0A42FFFE5F0FC
:1000DE003EFEE433C98DF0A42EFEE5F039CD8AF054
:1000EE00A42FFFE5F03EFEE43DFD33D0E0FB5007CC
:1000FE000BBB000F020231EC2CFCEF33FFEE33FE94
:06010E00ED33FD020209C1
:10011400020231EC5D046005E85904700302022711
:100124001201F2580460F6EC4860F2EC7004FDFE33
:10013400FF22C860DB2481C85009C39860025006BE
:1001440002022E9850CAF582E9294B4A7005AB8207
:1001540002021D75F0007C1A7880C3EF9BEE9AEDC5
:1001640099400DC3EF9BFFEE9AFEED99FDE842F036
:10017400DC23ACF0D0E0FFD0E0FED0E0FDAB822089
:10018400E7101BEB60BAEC2CFCEF33FFEE33FEED13
:1001940033FD020209E803F830E705C0F075F0000A
:1001A400EF2FFFEE33FEED33FD40B830E7C280AAF7
:1001B40075F020800E75F010800575F0087D007EC6
:1001C400007F003392D530D50312052EEC33401056
:1001D400EF33FFEE33FEED33FDEC33FCD5F0ED22CF
:0E01E400E5F0247EA2D513CC92E7CDCEFF220B
:10057200E53A2426F8E6053A22782330070278265F
:10058200E475F00112053C0204D62000EB7F2ED266
:10059200008018EF540F2490D43440D4FF30040B61
:1005A200EF24BFB41A0050032461FFE53B6002153B
:1005B2003B053EE53E7002053D30070D7823E475AC
:1005C200F00112053CEF02051C020FC37403D207AF
:1005D2008003E4C207F53A8B238A248925E4F53B9C
:1005E200F53DF53EE53B60077F201205AD80F575D0
:1005F2003CFFC201C200C202C203C205C206C20857
:1006020012057BFF700D3007057F001205BEAF3E5D
:10061200AE3D22B4255FC2D5C20412057BFF24D0B1
:10062200B40A00501A75F00A783B30D50508B6FFB7
:100632000106C6A426F620D5047002D20380D9246E
:10064200CFB41A00EF5004C2E5D2040208ABD201C3
:1006520080C6D20080C0D20280BCD2D580BAD20578
:1006620080B47F201205AD2002077401B53B004023
:10067200F1120572FF1205AD0205E6D208D206801C
:1006820095120572FB120572FA120572F94A4B7045
:100692000679A27A097BFF20022EE53B602A7E00C2
:1006A2008E827583001204EF60060EEE653C70F0D8
:1006B200C2D5EBC0E0EAC0E0E9C0E0EE12090BD01F
:1006C200E0F9D0E0FAD0E0FB1204D6FF60AAEBC05A
:1006D200E0EAC0E0E9C0E01205ADD0E02401F9D0C3
:1006E200E03400FAD0E0FBE53C0460DCD53CD98084
:1006F20087D20280A21208EE60F7E53C7001041274
:10070200023CA93C600DE53C600914F53C120995D8
:10071200EF60F3EA30E702F404C3995077EAF42574
:100722003C0430E701E404F53C800D1208EE60C1A0
:10073200EA053C253C12023CEA7839F630E701E44E
:10074200253C04D53C042005011412090BE4C0E049
:100752001209957839E6601320E70714F612059519
:10076200802204F6D0E014C0E07F00120595E53C3B
:10077200600712058C153C800B30050312058CD0E6
:10078200E00205E6D0E00480C51208EE60A0E53C78
:100792000412023C7839EAF6E53C200502600104C5
:0507A200240412090B04
:1007A70074FF04C0E0120995120595E53C20050287
:1007B700600312058CD0E0B53CE87F4512059F78B1
:1007C70039E67F2B30E7047F2DF404C0E01205AD36
:1007D700D0E075F00A84C0F0120596D0E0120596B5
:1007E7000205E6791080027908C206C2088008D29D
:1007F700D5790A8004790AC2D5E53C047002F53C34
:10080700E4FAFDFEFF120572FC7B082001131205B6
:1008170072FD7B1030000A120572FE120572FF7B13
:1008270020EC3382D592D55013C3E43000069FFFE6
:10083700E49EFEE42001039DFDE49CFCE4CBF8C2AA
:1008470001EC700CCFCECDCCE824F8F870F380170C
:10085700C3EF33FFEE33FEED33FDEC33FCEB33FB3D
:10086700994002FB0FD8E9EB300105F8D0E0C44806
:10087700B201C0E00AEC4D4E4F78207B0070C2EA0F
:10088700B53C0040BCC0E012090DD0F0D0E020011B
:1008970004C4C0E0C4B201C0F0120596D0F0D5F090
:1008A700EB0205E612054C06835307EA5806544C3B
:1008B70006504207EE4F07F64407F6490669430715
:1008C700FC55072D46078B4506F74709C2500658C2
:1008D7002D065C2E067F2B066023067D2009AB2A9A
:1008E70006184800000677E53CB4FF03753C06127E
:1008F7000572FC120572FD120572FE120572FF7871
:100907003202026B790AA2D5200314300509B91007
:10091700020404B9080104A2D520060250010420EC
:1009270002689202B53B005034C0E07F20300319C3
:100937007F30A20272067205500F120964C202C20A
:1009470006C205C2087F30800F300503E9C0E012F8
:1009570005AD300503D0E0F9D0E0B53BCC30051745
:100967007F30B9100C1205AD7F583004077F7880AF
:1009770003B908031205AD3002057F2D0205AD7FCF
:10098700202008F87F2B2006F322920280CF7F00D9
:10099700B4070050052432F8E6FF22286E756C6C08
:1009A7002900D2011205723001F8C201783B30D517
:1009B7000108F60206182D50434958120572240300
:1009C700B405004001E49009BD9312059E743A12E4
:0A09D700059ED203753B040207EAF7
:1001F200E9D2E7C933E833F892D5EDD2E7CD33EC53
:0702020033FC5002B2D522CB
:10020900EC30E7100FBF000C0EBE00080DBD000456
:100219000BEB6014A2D5EB13FCED92E7FD2274FF02
:10022900FCFDFEFF22E480F8A2D574FF13FC7D805B
:03023900E480EF6F
:10023C00F920E72824F950037907E4F42402FB1889
:10024C00DBFDE624FB5014E9600DE4F618E604F639
:0F025C00B40A08E4F6D9F57401F60A22C2D522D5
:10026B00ED33EC3392D5FA602AB4FF33EDC2E77B62
:10027B00FF60067A027990E4227A02799920D504FC
:10028B007A027994224E614E002B494E46002D493D
:10029B004E4600E47A08F608DAFC7B00740722E885
:1002AB00C0E0ECC0E0EDC0E0EEC0E0EFC0E0EA750E
:1002BB00F010A4CAABF075F04DA42BFBE435F0FCA9
:1002CB00EA2410FAEB34C5FBEC34D9FCEDC2E7FFA2
:1002DB0075F056A4F42411C5F0F434C58FF0A42A9C
:1002EB00E5F03BE43CF620E714120496D0E0FFD097
:1002FB00E0FED0E0FDD0E0FC1201178014F40412F4
:10030B000496D0E0FFD0E0FED0E0FDD0E0FC120080
:10031B000ED0E0F8E6FAEDD2E7CD33EC332482FBD6
:10032B00E4C3CF33CFCE33CECD33CD33DBF37B072B
:10033B0075F00A846004F6081B0AE5F0F6088FF0E6
:10034B00740AA4FFACF08EF0740AA42CFEACF0502F
:10035B00010C8DF0740AA42CFDE435F0F608DBDEFD
:03036B00740722F2
:10036E00020227E86480F8E933E83360110460F094
:10037E00ED33EC337009E8FCE9FDEAFEEBFF2204F5
:10038E0060DED3EB9FEA9EE99DE8C2E78CF0C2F7F0
:10039E0095F0400CE8CCF8E9CDF9EACEFAEBCFFBBC
:1003AE001201F285D0F05804700320D5B3E8047022
:1003BE00075002B2D502023192D5EC0460F7E4CCBC
:1003CE00C0E0C398F8603B94186008400DD0E0FB85
:1003DE00020209E4FBFAC9FC8028E830E406E4C90D
:1003EE00FBE4CAFCE830E305E4C9CACBFCE85407D9
:1003FE006010F8C3E913F9EA13FAEB13FBEC13FCE4
:10040E00D8F130F52FC3E49CFCEF9BFFEE9AFEED86
:10041E0099FDD0E0FBEF4E4D4C701222DB03020231
:10042E002EEC2CFCEF33FFEE33FEED33FDED30E71B
:10043E00EB020209EF2BFFEE3AFEED39FDD0E0FBA9
:10044E0050130BBB0003020231ED13FDEE13FEEF52
:08045E0013FFEC13FC0202097C
:100466003F8000004120000042C80000447A00009E
:10047600461C400047C35000497424004B18968020
:100486004CBEBC205A0E1BCA6753C21C749DC5AE17
:10049600FB60065407601C23231204C4EB54386027
:1004A600091204B01204BF12000EECF8EDF9EEFAD0
:1004B600EFCB22EB1204BF80F1543803241C9004C6
:1004C60066FE93FC0EEE93FD0EEE930ECE93FF2288
:03000000020CFBF4
:0C0CFB00787FE4F6D8FD758159020D42A7
:1004D600BB010689828A83E0225002E722BBFE0224
:0904E600E32289828A83E4932257
:1004EF00BB010CE58229F582E5833AF583E02250C2
:1004FF0006E92582F8E622BBFE06E92582F8E2220C
:0D050F00E58229F582E5833AF583E4932225
:10051C00BB010689828A83F0225002F722BBFE01BE
:02052C00F322B8
:0E052E00C3E49FFFE49EFEE49DFDE49CFC22DE
:10053C00FAE6FB0808E6F925F0F618E6CA3AF622C0
:10054C00D083D082F8E4937012740193700DA3A33E
:10055C0093F8740193F5828883E473740293686052
:06056C00EFA3A3A380DF52
:100FC300EFB40A07740D120FCE740A309811A89962
:100FD300B8130CC2983098FDA899C298B811F6308E
:070FE30099FDC299F5992266
:100D0700020DF0E493A3F8E493A34003F68001F205
:100D170008DFF48029E493A3F85407240CC8C333ED
:100D2700C4540F4420C8834004F456800146F6DFBC
:100D3700E4800B0102040810204080901054E47EE8
:100D4700019360BCA3FF543F30E509541FFEE493B1
:100D5700A360010ECF54C025E060A840B8E493A378
:100D6700FAE493A3F8E493A3C8C582C8CAC583CAA3
:100D7700F0A3C8C582C8CAC583CADFE9DEE780BE5B
:011066000089
:00000001FF
