:1003A5000D2D2D2D2D2D2D2D2D46696E697368650D
:1003B50064212D2D2D2D2D2D2D2D0D00496E6974AA
:1003C50069616C697365204D4D432C20506C6561E6
:1003D50073652057616974696E672E2E2E2E2E0067
:1003E5004F4B210D0D004552524F52210D0D00501E
:1003F5006C617365205072657373204B312C4B32E1
:100405002C4B33206F72204B3420746F20506C615D
:1004150079204D4D4320546573742E2E2E0D0D00FD
:1004250052652D496E697469616C697365204D4D1E
:10043500432C20506C656173652057616974696E42
:10044500672E2E2E2E2E005772697465204D4D4352
:10045500204F726465722042797465732835313294
:10046500292E2E2E005772697465204D4D4320525A
:10047500616E646F6D204279746573283531322958
:100485002E2E2E2E2E2E000D0D0D52656164204D43
:100495004D432044454D4F3A204F726465726420A8
:1004A50042797465732E2E2E2E2E2E00204F4B2151
:1004B5000D0D00204552524F52202A2A2A210D0D9A
:1004C500000D0D0D52656164204D4D432044454D91
:1004D5004F3A2052616E646F6D2042797465732EB8
:0A04E5002E2E2E2E2E0020202000C7
:0608D700012900012A01C5
:0408AB007F0A7E0042
:1008AF00EF1FAA0670011E4A600BE4FDEDC394789A
:0508BF0050EE0D80F772
:0108C4002211
:0804EF008F138E128D118C1089
:1004F70078187C007D007BFF7A0479EB7E007F040F
:100507001202E2E4F517F516F515F514AF13AE125E
:10051700AD11AC10AB17AA16A915A814C312034E38
:100527005073E517541FFFE4FEFDFCFBFAF9F8C30F
:1005370012034E70057F0D1208F0AE16AF178F82AB
:100547008E83E0FDC4540FF518E0540FF519D3E579
:10055700186480948950047430800274372518F524
:1005670018D3E51964809489500474308002743775
:100577002519F5197B007A007918120861E5172407
:1005870001F517E43516F516E43515F515E43514B8
:0E059700F5140205137BFF7A0379A5020861B3
:0808F0008F993099FDC2992295
:100861008B1C8A1D891EAB1CAA1DA91E12030860C0
:1008710013051EE51E7002051D14F9120308FF126F
:0508810008F080E222F6
:1008C500759850758920E4F587758BFD758DFDD27A
:0208D5008E2271
:100003001208F81208C57F647E001208AF7BFF7ADE
:100013000379C11208611207528F2AE52A7BFF6018
:10002300067A0379E580047A0379EB1208617BFF92
:100033007A0379F41208617F2C7E01120823E5907C
:10004300F460FBE59020E00D1208ABE59020E03969
:100053007529018034E59020E20D1208ABE590206C
:10006300E2277529028022E59020E40D1208ABE512
:100073009020E4157529038010E59020E60B120803
:10008300ABE59020E603752904E52A703E7BFF7AF1
:10009300047925120861E4750FF4750E01F50DF569
:1000A3000C1207528F2A780C74FF120387EC4D4E03
:1000B3004F6004E52A60EAE52A600B7BFF7A037947
:1000C300E512086180057BFF020196E52964017052
:1000D3005B7BFF7A04794C120861E4F50BF50AF5B2
:1000E30009F508E4FF7E02FDFCAB0BAA0AA909A8E7
:1000F30008C312034E501E850B82850A83E50BF05D
:100103002401F50BE4350AF50AE43509F509E4356C
:1001130008F50880CE7F007E007D007C001205A5D7
:100123008F2AE52A7BFF600280638067E5296402EA
:1001330070677BFF7A04796A120861E4F50BF50AAC
:10014300F509F508E4FF7E02FDFCAB0BAA0AA90939
:10015300A808C312034E50221207EC850B82850AAE
:1001630083EFF0E50B2401F50BE4350AF50AE435DA
:1001730009F509E43508F50880CA7F007E027D0091
:100183007C001205A58F2AE52A7BFF60067A037996
:10019300E5802E7A0379EB8028E529640370277BB9
:1001A300FF7A04798C1208617F007E007D007C0059
:1001B3001206CE8F2AE52A7BFF6002802B7A047910
:1001C300B8120861803FE529640470397BFF7A0423
:1001D30079C61208617F007E027D007C001206CE84
:1001E3008F2AE52A60167BFF7A0479B11208617FB2
:1001F300007E027D007C001204EF80097BFF7A04FD
:0F02030079B8120861E590F4700302004180F6AB
:0808DD00061F000000000000EE
:0508F800D2B2C2B522DE
:10082D00E4FFFEC2B500000000000000000000EF74
:10083D0025E0FFA2B4E4334FFF00000000000000EC
:10084D00000000D2B5000000000000000000000E06
:03085D00BE08D002
:010860002275
:10088600E4FEEF25E0FF92B3000000000000000048
:100896000000C2B500000000000000000000D2B554
:0408A6000EBE08DE9C
:0108AA00222B
:0908E6007F06781FE4F608DFFC30
:0108EF0022E6
:0607A3007B007A00791FC3
:0607A9008B148A1589166D
:1007AF00E4FDF5177CFFD2B27FFF120886C2B2AB11
:1007BF0014AA15A9168D82758300120321FF120842
:1007CF00860DBD06EABCFF1212082DAC07AF170548
:0C07DF0017EFD394C840EEAF0422AF0423
:0107EB0022EB
:10075200E4F510F511FD1208E6751F407524957F2A
:10076200647E001208AFE4FD7FFF1208860DBD1003
:10077200F71207A3EF640160037F0022751F417522
:1007820024FF1207A3EF60160511E511AE107002E7
:10079200051014D394FEEE94FF40E77F00227F0100
:0107A2002234
:0806CE008F138E128D118C10A8
:1006D6001208E6751F517524FFAF13AE12AD11ACAB
:1006E6001078091203728F138E128D118C107818E0
:1006F60012035F8F20AF13AE12AD11AC107810123B
:10070600035F8F21AF13AE12AD11AC107808120340
:100716005F8F228513231207A3EF60037F00221247
:10072600082DEF64FE60030080F5E4FDFC12082D41
:100736008D828C83EFF00DBD00010CE4B505EEEC67
:0B074600B402EA12082D12082D7F01FA
:010751002285
:0805A5008F138E128D118C10D2
:1005AD001208E6751F587524FFAF13AE12AD11ACCE
:1005BD001078091203728F138E128D118C1078180A
:1005CD0012035F8F20AF13AE12AD11AC1078101265
:1005DD00035F8F21AF13AE12AD11AC10780812036B
:1005ED005F8F228513231207A3EF60037F00227F05
:1005FD00FF1208867FFE120886E4FDFC8D828C8337
:10060D00E0FF1208860DBD00010CE4B505EEECB45B
:10061D0002EA7FFF1208867FFF12088612082DEF6F
:10062D00541F640560037F002212082DEF70030034
:04063D0080F77F01C2
:010641002296
:03000000020642B3
:0C064200787FE4F6D8FD75812A02068955
:10021200E709F608DFFA8046E709F208DFFA803ECE
:1002220088828C83E709F0A3DFFA8032E309F608BB
:10023200DFFA8078E309F208DFFA807088828C8323
:10024200E309F0A3DFFA806489828A83E0A3F608D7
:10025200DFFA805889828A83E0A3F208DFFA804CB1
:1002620080D280FA80C680D4806980F28033801088
:1002720080A680EA809A80A880DA80E280CA8033F1
:1002820089828A83ECFAE493A3C8C582C8CCC58369
:10029200CCF0A3C8C582C8CCC583CCDFE9DEE78039
:1002A2000D89828A83E493A3F608DFF9ECFAA9F0B8
:1002B200EDFB2289828A83ECFAE0A3C8C582C8CC0E
:1002C200C583CCF0A3C8C582C8CCC583CCDFEADE27
:1002D200E880DB89828A83E493A3F208DFF980CC89
:1002E20088F0EF60010E4E60C388F0ED2402B40482
:1002F2000050B9F582EB2402B4040050AF23234529
:06030200822390026273E9
:10030800BB010689828A83E0225002E722BBFE02F3
:09031800E32289828A83E4932226
:10032100BB010CE58229F582E5833AF583E0225091
:1003310006E92582F8E622BBFE06E92582F8E222DB
:0D034100E58229F582E5833AF583E49322F5
:10034E00EB9FF5F0EA9E42F0E99D42F0E89C45F005
:01035E00227C
:10035F00E8600FECC313FCED13FDEE13FEEF13FF7C
:03036F00D8F122A0
:10037200E8600FEFC333FFEE33FEED33FDEC33FCE9
:03038200D8F1228D
:100385007401FF3395E0FEFDFC080808E62FFFF633
:1003950018E63EFEF618E63DFDF618E63CFCF622AC
:1007EC00AC25AD26AE27AF28780FEFA2E2EC20E6C1
:1007FC0001B35D5E5FF47004FCFDFEFFEF13FFEED2
:10080C0013FEED13FDEC13FCD8E08C258D268E2702
:10081C008F28EE547FFE228E258F26E4F527F528AF
:01082C0022A9
:10064E00020003E493A3F8E493A34003F68001F2BF
:10065E0008DFF48029E493A3F85407240CC8C333AD
:10066E00C4540F4420C8834004F456800146F6DF7C
:10067E00E4800B01020408102040809008D7E47E2D
:10068E00019360BCA3FF543F30E509541FFEE49371
:10069E00A360010ECF54C025E060A840B8E493A338
:1006AE00FAE493A3F8E493A3C8C582C8CAC583CA63
:1006BE00F0A3C8C582C8CAC583CADFE9DEE780BE1B
:0108E5000012
:00000001FF
