:1005D600E4FE00000000EF25E0FF92B300000000FB
:1005E600D2B200000000C2B20EBE08E6D2B30000CE
:1005F6000000D2B200000000A2B3B392D500000002
:0506060000C2B2A2D504
:01060B0022CC
:10066C00E4FFD2B3FED2B200000000EF25E0FFA2FF
:10067C00B3E4334FFF00000000C2B2000000000ED4
:03068C00BE08E2C3
:01068F002248
:10055500AE07D2B300000000D2B200000000C2B363
:1005650000000000C2B2C3EC940150028004EE44C6
:1005750002FF1205D6AF051205D6AF031205D6C286
:10058500B300000000D2B200000000D2B3000000AA
:02059500002242
:02040700AB0741
:10040900D2B300000000D2B200000000C2B3000065
:100419000000C2B2C3EC940150028004EB4402FF15
:100429001205D6AF051205D6D2B300000000D2B22C
:1004390000000000C2B300000000C2B2C3EC940186
:10044900EB5004440180024403FF1205D612066CE6
:10045900D2B300000000D2B200000000C2B2000016
:100469000000C2B3C2B300000000D2B20000000015
:06047900D2B300000000F8
:01047F00225A
:1004F200E4F52475900F7F01FE120697AF90EF246A
:10050200F9601A24FC601124FE6008147014E4F5EA
:10051200248012752401800D75240280087524033D
:1005220080037524107590F07F017E00120697AF4C
:1005320090EF2490601424C0600C24E0600424F046
:10054200800E7404800674088002740C2524F5243D
:02055200AF24D4
:010554002284
:10048000596F75722050617373776F72642E2E2EC0
:10049000002020202020202020202020202020207C
:1004A0002000556E6C6F636B204F4B212020202065
:1004B0002020004552524F52202120202020202071
:1004C000202020004E6F207269676874732021001D
:1004D0004E65772050617373776F72643A2E2E2EBB
:1004E0000050617373776F72642053617665642185
:0204F0002000EA
:1006AD00011A100119100A080000000000000000D6
:0B06BD000000071B0000000000000010
:1006E400E4F5247F017E00120697B2B70524E524C1
:0706F400C3946440EEC2B79D
:0106FB0022DC
:06073600E4F51BF50822AA
:100640007524FF0524E524FD7C007FA012040774B7
:10065000122524F8A60774122524F8E6FF6007E5A2
:0B06600024C3940640DDEF6002E4F6C6
:01066B00226C
:10059700E4F524E524FD7C00241BF8E6FB7FA0128C
:1005A70005557F057E00120697741B2524F8E66023
:1005B700090524E524D3940640D9741B2524F8E6BD
:0E05C700600CE524FD7C00E4FB7FA0120555CE
:0105D5002203
:1001D500E4F522F5237580FF7590FF75A0FF7F0A72
:1001E500FE1206971206C97BFF7A047980E4FDFFAB
:1001F50012060C1206407590F0E59064F060051249
:1002050004F28F19E519B40F00400302035E900252
:100215001AF828287302024702024702024702021F
:10022500470202470202470202470202470202470B
:1002350002024702028C0202D30202F802031B02E9
:10024500034BE522D39405400302035EE522700CBF
:100255007BFF7A047991FD7F0112060CE5192430A4
:10026500FF741B2522F8A607741C2522F8E4F674F2
:10027500082522F8762A74092522F8E4F60522FBDA
:100285007A007908020358120640781B7C007D002D
:100295007B007A0079121201B8EF7017C2A7120716
:1002A500367BFF7A0479A2E4FD7F0112060C7523E3
:1002B500018015D2A71207367BFF7A0479B3E4FDD6
:1002C5007F0112060CE4F523E4F52202035ED2A7B2
:1002D5001207367BFF7A047980E4FDFF12060C7B5A
:1002E500FF7A047991E4FD7F0112060CE4F522F50D
:1002F500238066E52370087BFF7A0479C48015E4C2
:10030500F5227BFF7A0479D0FDFF12060C7BFF7A7C
:10031500047991E4803DE52370087BFF7A0479C474
:1003250080221205977F057E00120697120640E48B
:10033500F5227BFF7A047980FDFF12060C7BFF7A9C
:100345000479E1E4800DE4F5221207367BFF7A0497
:100355007991E4FD7F0112060C1206E47F647E00AC
:100365001206977590F0E590B4F0FBE59064F060A7
:06037500030201FB80F50C
:02073C0080C07B
:070690001207107F017E003C
:10069700EF1FAA0670011E4A600BE4FDEDC39478B4
:0506A70050EE0D80F78C
:0106AC00222B
:1006FC007580FFC2A2C2A0D2A1D2A2AF80C2A2EFCB
:03070C0020E7EDF6
:01070F0022C7
:10071000AE071206FCC2A2C2A0C2A18E80D2A20065
:03072000C2A22250
:10072300AE071206FCC2A2D2A0C2A18E80D2A20042
:03073300C2A2223D
:1006C9007F381206907F011206907F061206907FEE
:0B06D9000C1207107F017E0002069744
:06060C008B248A258926DB
:10061200E4FCEF90073C934DFF120710AB24AA2590
:10062200A9268C827583001200036011AF040C8F1F
:0D06320082758300120003FF12072380DF92
:01063F002298
:0300000002037B7D
:0C037B00787FE4F6D8FD7581260203C2ED
:10000300BB010CE58229F582E5833AF583E02250B2
:1000130006E92582F8E622BBFE06E92582F8E222FC
:0D002300E58229F582E5833AF583E4932216
:10003000E3F5F009E208B5F06D606B80F3E3F5F0ED
:1000400009E608B5F060605E80F387F009E608B560
:10005000F054605280F487F009E208B5F048604639
:1000600080F488828C8387F009E0A3B5F03860368D
:1000700080F488828C8387F009E493A3B5F027602D
:100080002580F388828C83E3F5F009E0A3B5F016B0
:10009000601480F388828C83E3F5F009E493A3B5C0
:1000A000F004600280F202015B808580E7808E8030
:1000B000D2803C8015806C807E809B80B5808B8058
:1000C000A1804F8070803A02017189828A83ECFAA4
:1000D000E493F5F0A3C8C582C8CCC583CCE493A350
:1000E000C8C582C8CCC583CCB5F070606E80E1898C
:1000F000828A83E493F5F0A3E208B5F05E605C8049
:10010000F289828A83E0F5F0A3E608B5F04D604BF2
:1001100080F389828A83E0F5F0A3E208B5F03C60C1
:100120003A80F389828A83E493F5F0A3E608B5F078
:100130002A602880F2805D89828A83ECFAE493F554
:10014000F0A3C8C582C8CCC583CCE0A3C8C582C80B
:10015000CCC583CCB5F004600280E27F00F845F0A6
:10016000600EE863F0806480D395F01F40027F0149
:100170002289828A83ECFAE0F5F0A3C8C582C8CC54
:10018000C583CCE0A3C8C582C8CCC583CCB5F0CBB1
:1001900060C980E389828A83ECFAE0F5F0A3C8C5E0
:1001A00082C8CCC583CCE493A3C8C582C8CCC58320
:1001B000CCB5F0A760A580E288F0ED2402B404007D
:1001C0005099F582EB2402B40400508F232345821A
:0501D000239000A9735B
:100387000201D5E493A3F8E493A34003F68001F2B6
:1003970008DFF48029E493A3F85407240CC8C33377
:1003A700C4540F4420C8834004F456800146F6DF46
:1003B700E4800B01020408102040809006ADE47E23
:1003C700019360BCA3FF543F30E509541FFEE4933B
:1003D700A360010ECF54C025E060A840B8E493A302
:1003E700FAE493A3F8E493A3C8C582C8CAC583CA2D
:1003F700F0A3C8C582C8CAC583CADFE9DEE780BEE5
:0106C8000031
:00000001FF
