:100478004C4344313630322044454D4F202D2031F5
:10048800004C4344313630322044454D4F202D2016
:100498003200202020202020202020202020202062
:1004A800202000253264202B20253264203D202581
:1004B8003264004C4344313630322044454D4F209D
:1004C8002D2033004C4344313630322044454D4FC3
:1004D800202D203400202020202020202020202013
:1004E8002020202020796F752061726520676F6950
:1004F8006E6720746F207370656E64206576656E14
:10050800206D6F72652074696D6520776F726B69F5
:100518006E67206F6E2074686520736368656D610F
:10052800746963203F000000000000001F00000005
:100538000000001F1F00000000001F1F1F00000018
:10054800001F1F1F1F0000001F1F1F1F1F00001F6D
:100558001F1F1F1F1F001F1F1F1F1F1F1F00080F08
:10056800120F0A1F02000F090F090F0913000F09C4
:10057800090F09090F001F0A1F0A0A0A12000A1F99
:06058800041F040A11002B
:0807C2008B248A2589268D276E
:1007CA007F40120933E4F528E528C395275030E421
:1007DA00F529E52875F008A4AB242526F9E5253581
:1007EA00F0FA7E00E92529F9EE3AFA12035FFF12C0
:0F07FA0009460529E529C3940840D7052880C979
:0108090022CC
:10076A007F0C1209337BFF7A047978E4FDFF1208C3
:10077A004BE4F522F5237BFF7A0479DD12090AD3CB
:10078A00E5239FE5229E502674DD2523F9E43404EF
:10079A00FA7BFFE4FD7F0112084B7F327E001208CC
:1007AA00D920B0130523E52370CC052280C87FE841
:0707BA007E031208D980BA8A
:0107C1002215
:100642007F0C1209337BFF7A047989E4FDFF1208DB
:100652004B7BFF7A04799AE4FD7F0112084B7F0FEE
:10066200120933AF8C7E0012084130B1030206EF4B
:1006720012080A7C007D641203A58C238D241208C3
:100682000A7C007D641203A57539FF753A04753B37
:10069200AB85233C85243D8C3E8D3FE5242DF541E1
:1006A200E5233CF5407B007A00792512005F7FC08C
:1006B200120933E4F52274252522F8E6FF60028050
:1006C200027F201209467F647E001208D90522E5C6
:1006D20022C3941040E07FC87E001208D97BFF7AC3
:0D06E20004799AE4FD7F0112084B02066CBA
:0106EF0022E8
:1006F000E4F5237F0C1209337BFF7A0479BBE4FD18
:10070000FF12084B7BFF7A04799AE4FD7F011208FF
:100710004B7FC0120933752220E522C39480400725
:10072000E522D3949F40330523E523540F701C7FAB
:10073000F47E011208D97BFF7A04799AE4FD7F01E7
:1007400012084B7FC0120933E4F523AF2212094689
:100750007F147E001208D920B20F0522E52270B95D
:090760007FF47E011208D980A883
:01076900226D
:10058E00E4F5237F0C1209337BFF7A0479CCE4FD6A
:10059E00FF12084B7BFF7A04799AE4FD7F01120863
:1005AE004B7BFF7A05792E7D071207C27FC1120998
:1005BE0033752206AF221209467F327E001208D909
:1005CE0020B3701522E522B4FFEAE4F522AF221221
:1005DE0009467F327E001208D920B3570522E52244
:1005EE00D3940640E87FF47E011208D97BFF7A048B
:1005FE00799AE4FD7F0112084B7BFF7A0579667DBF
:10060E00051207C27FC4120933E4F522AF22120984
:10061E00467F201209467F647E001208D920B3134C
:10062E000522E522D3940440E37FE87E031208D925
:03063E000205A210
:010641002296
:1008B00075B0FF1208EFD28C20B00312076A20B186
:1008C0000312064220B2031206F020B3EB12058E8B
:0208D00080E6C0
:0209650080C050
:0708D2001209337F017E00D3
:1008D900EF1FAA0670011E4A600BE4FDEDC3947870
:0508E90050EE0D80F748
:0108EE0022E7
:10091F007580FFC2A2C2A0D2A1D2A2AF80C2A2EFA5
:03092F0020E7EDD1
:0109320022A2
:10093300AE0712091FC2A2C2A0C2A18E80D2A2001A
:03094300C2A2222B
:10094600AE0712091FC2A2D2A0C2A18E80D2A200F7
:03095600C2A22218
:1008EF007F381208D27F011208D27F061208D27FFA
:0B08FF000C1209337F017E000208D9B3
:06084B008B368A37893864
:10085100E4FCEF900965934DFF120933AB36AA37DB
:10086100A9388C82758300120378FF600CECC39465
:100871001050061209460C80E3ECC3941050087F17
:07088100201209460C80F271
:01088800224D
:0300000002095999
:0C095900787FE4F6D8FD7581490208B0F3
:10035F00BB010689828A83E0225002E722BBFE029C
:09036F00E32289828A83E49322CF
:10037800BB010CE58229F582E5833AF583E022503A
:1003880006E92582F8E622BBFE06E92582F8E22284
:0D039800E58229F582E5833AF583E493229E
:1003A500C2D5EC30E709B2D5E4C39DFDE49CFCEE73
:1003B50030E715B2D5E4C39FFFE49EFE1203EDC3FB
:1003C500E49DFDE49CFC80031203ED30D507C3E4F6
:0603D5009FFFE49EFE22E2
:10000300E5452439F8E60545227836300702783984
:10001300E475F00112044202035F2000EB7F2ED24D
:10002300008018EF540F2490D43440D4FF30040BD5
:10003300EF24BFB41A0050032461FFE546600215A4
:10004300460549E5497002054830070D7836E475E1
:10005300F001120442EF0203DB0208897403D207A2
:100063008003E4C207F5458B368A378938E4F546C1
:10007300F548F549E54660077F2012003E80F57597
:1000830047FFC201C200C202C203C205C206C208C0
:1000930012000CFF700D3007057F0012004FAF49AF
:1000A300AE4822B4255FC2D5C20412000CFF24D08F
:1000B300B40A00501A75F00A784630D50508B6FF21
:1000C3000106C6A426F620D5047002D20380D924E3
:1000D300CFB41A00EF5004C2E5D20402024FD2019A
:1000E30080C6D20080C0D20280BCD2D580BAD205ED
:1000F30080B47F2012003E2002077401B546004001
:10010300F1120003FF12003E020077D208D20680EC
:1001130095120003FB120003FA120003F94A4B7015
:100123000679207A037BFF20022EE546602A7E00B3
:100133008E8275830012037860060EEE654770F0B9
:10014300C2D5EBC0E0EAC0E0E9C0E0EE120296D00F
:10015300E0F9D0E0FAD0E0FB12035FFF60AAEBC046
:10016300E0EAC0E0E9C0E012003ED0E02401F9D0AB
:10017300E03400FAD0E0FBE5470460DCD547D980E2
:10018300877BFF7A027992D202809C791080027970
:1001930008C206C2088008D2D5790A8004790AC247
:1001A300D5E547047002F547E4FAFDFEFF120003AC
:1001B300FC7B08200113120003FD7B1030000A12A0
:1001C3000003FE120003FF7B20EC3382D592D5504F
:1001D30013C3E43000069FFFE49EFEE42001039D69
:1001E300FDE49CFCE4CBF8C201EC700CCFCECDCC8B
:1001F300E824F8F870F38017C3EF33FFEE33FEED16
:1002030033FDEC33FCEB33FB994002FB0FD8E9EBF6
:10021300300105F8D0E0C448B201C0E00AEC4D4E0D
:100223004F78207B0070C2EAB5470040BCC0E012A3
:100233000298D0F0D0E0200104C4C0E0C4B201C0F1
:10024300F0120027D0F0D5F0EB0200771204520130
:100253001453018E5800E54C00E14201924F019A7C
:0F02630044019A4900FA4301A0550184460184E1
:100272004501844703405000E92D00ED2E01102B6B
:1002820000F123010E2003292A00A94800000108D9
:100292003F3F3F00790AA2D5200314300509B91067
:1002A200020404B9080104A2D52006025001042068
:1002B20002689202B546005034C0E07F2030031934
:1002C2007F30A20272067205500F1202EFC202C202
:1002D20006C205C2087F30800F300503E9C0E01274
:1002E200003E300503D0E0F9D0E0B546CC3005172A
:1002F2007F30B9100C12003E7F583004077F78809F
:1003020003B9080312003E3002057F2D02003E7F32
:10031200202008F87F2B2006F322920280CF286E3D
:10032200756C6C2900D2011200033001F8C2017809
:100332004630D50108F60200A92D50434958120053
:10034200032403B405004001E490033B9312002F01
:0D035200743A12002FD20375460402018E8A
:10080A00AC08AD09AE0AAF0B780FEFA2E2EC20E616
:10081A0001B35D5E5FF47004FCFDFEFFEF13FFEEB3
:10082A0013FEED13FDEC13FCD8E08C088D098E0A3B
:10083A008F0BEE547FFE228E088F09E4F50AF50B22
:01084A00228B
:10090A00E4FFFE12035F600C0FEF70010E09E9703D
:05091A00F20A80EF224B
:1003DB00BB010689828A83F0225002F722BBFE0101
:0203EB00F322FB
:1003ED00BC000BBE0029EF8DF084FFADF022E4CCF4
:1003FD00F875F008EF2FFFEE33FEEC33FCEE9DECBD
:10040D00984005FCEE9DFE0FD5F0E9E4CEFD22ED02
:10041D00F8F5F0EE8420D21CFEADF075F008EF2F4C
:10042D00FFED33FD4007985006D5F0F222C398FD3D
:05043D000FD5F0EA22DA
:10044200FAE6FB0808E6F925F0F618E6CA3AF622BB
:10045200D083D082F8E4937012740193700DA3A339
:1004620093F8740193F5828883E47374029368604D
:06047200EFA3A3A380DF4D
:10088900EFB40A07740D120894740A309811A899E4
:10089900B8130CC2983098FDA899C298B811F630CF
:0708A90099FDC299F59922A7
:00000001FF
