:0409010002080000E8
:1008EB00EF1FAA0670011E4A600BE4FDEDC394785E
:0508FB0050EE0D80F736
:0109000022D4
:03000B0002088C5C
:10088C00C0E0C0D0B2B00509E50970020508C394F8
:10089C0020E50894035008758CF4758A04801BC3FA
:1008AC00E50994B0E50894045008758CDA758A1043
:0F08BC008008C28C750800750900D0D0D0E032DA
:1008CB0075A882E4F589758CF4758A042097FD7FF1
:1008DB000A7E001208EB2097F33097FDD28C80EC48
:03000000020800F3
:0C080000787FE4F6D8FD758109020847F6
:10080C000208CBE493A3F8E493A34003F68001F22F
:10081C0008DFF48029E493A3F85407240CC8C333ED
:10082C00C4540F4420C8834004F456800146F6DFBC
:10083C00E4800B0102040810204080900901E47E42
:10084C00019360BCA3FF543F30E509541FFEE493B1
:10085C00A360010ECF54C025E060A840B8E493A378
:10086C00FAE493A3F8E493A3C8C582C8CAC583CAA3
:10087C00F0A3C8C582C8CAC583CADFE9DEE780BE5B
:0109050000F1
:00000001FF
