:10051E003F065B4F666D7D076F777F7C395E797125
:0A054A004200020100420000000020
:1004FB00AD071FED600BE4FEEEC3947850F20E8057
:01050B00F7F8
:01050C0022CC
:10043500D2A7D2A6900001E090051E93F5B0C2A602
:100445007F021204FBD2A7D2A6900000E090051E01
:0A04550093F5B0C2A77F020204FB7A
:1004E400E4FFFED293C293EF25E0FFA291E4334FE1
:0604F400FF0EEEB408ED5E
:0104FA0022DF
:10048600900110E0FCA3E0FDA3E0FEA3E0FF120252
:01049600E085
:10049700E4FEEF25E0FF9292C293D2930EEEB408EA
:0104A700F163
:0104A8002231
:0C053D00C2907F051204971204E4D290D3
:01054900228F
:09050D00C2907F06120497D290FF
:0805160012053DEF20E0F9227F
:0F052E0012050DC2907F62120497D2900205163B
:0B040900E0FCA3E0FDA3E0FEA3E0FF89
:100414009001101202F378101204867808120486F0
:10042400900110E0FCA3E0FDA3E0FEA3E0FF0204C2
:010434009730
:0E045F00900104E0FCA3E0FDA3E0FEA3E0FF9B
:06046D0090010B1202F3E6
:10047300C2907F0312049790010B1204091204E443
:02048300D29015
:010485002254
:1004A90090010B1202F312050DC2907F02120497FC
:1004B90090010B12040990010FE0FF120497D290EA
:0304C90002051613
:1004CC00C2907F151204971204E4900004EFF0120E
:0804DC0004E4A3EFF0D290222A
:10000300E4900108F0A3F0E58030E0030200EF5331
:10001300A0FE12052E9001041202FF00000000E46E
:100023007FFFFEFDFC900104E0F8A3E0F9A3E0FAF2
:10003300A3E0FBD31202CF5036900104E0FCA3E00F
:10004300FDA3E0FEA3E0FF90010FF01204A99001CD
:1000530004E0FCA3E0FDA3E0FEA3E02401FFE43EF3
:10006300FEE43DFDE43CFC9001041202F380B090F9
:1000730001041202FF001FFF007FFF7EFF7D1F7C34
:1000830000900104E0F8A3E0F9A3E0FAA3E0FBD3B6
:100093001202CF503A1203C890010FEFF0900104FF
:1000A300E0FCA3E0FDA3E0FEA3E0FF1204A990019E
:1000B30004E0FCA3E0FDA3E0FEA3E02401FFE43E93
:1000C300FEE43DFDE43CFC9001041202F380AAE54A
:1000D3008030E0FB90010A7450F090010AE014F0C4
:1000E300600A63A0017F0A1204FB80EEE58020E230
:1000F3006E9001041202FF00000000E47FFFFEFD8A
:10010300FC900104E0F8A3E0F9A3E0FAA3E0FBD339
:100113001202CF503312045F900107E02404F582EA
:10012300E43400F583EFF0900104E0FCA3E0FDA3C9
:10013300E0FEA3E02401FFE43EFEE43DFDE43CFCDD
:100143009001041202F380B3E58030E2FBE49001F6
:1001530008F090000204F0A3E4F090010904F0E534
:100163008020E47B9001041202FF001FFF00E49053
:10017300010AF07FFF7EFF7D1F7C00900104E0F801
:10018300A3E0F9A3E0FAA3E0FBD31202CF503912A4
:10019300045F90010AE02404F582E43400F583EF60
:1001A300F0900104E0FCA3E0FDA3E0FEA3E0240142
:1001B300FFE43EFEE43DFDE43CFC9001041202F347
:1001C30090010AE004F080ABE58030E4FBE49001A9
:1001D30008F090000204F0A3E4F090010904F0E5B4
:1001E3008020E6191204CC900002E4F0A37402F01C
:1001F300E4900108F0A304F0E58030E6FB900109E8
:10020300E0700302000A900108E02404F582E4345C
:1002130000F583E0FFC4540F900001F0EF540F90FA
:100223000000F0E490010AF090010AE0C3946450E6
:1002330029120435E58030E00FE58030E20AE580DD
:1002430030E405E58020E60AE4900109F0F5A00218
:10025300000A90010AE004F080CE900108E0240136
:10026300FFE433FE900002E0FCA3E0FD12027A906B
:070273000108EDF002000A92
:0300000002033CBC
:0C033C00787FE4F6D8FD7581070203838A
:10027A00BC000BBE0029EF8DF084FFADF022E4CC68
:10028A00F875F008EF2FFFEE33FEEC33FCEE9DEC31
:10029A00984005FCEE9DFE0FD5F0E9E4CEFD22ED77
:1002AA00F8F5F0EE8420D21CFEADF075F008EF2FC1
:1002BA00FFED33FD4007985006D5F0F222C398FDB2
:0502CA000FD5F0EA224F
:1002CF00EB9FF5F0EA9E42F0E99D42F0E89C45F085
:0102DF0022FC
:1002E000E8600FECC313FCED13FDEE13FEEF13FFFC
:0302F000D8F12220
:0C02F300ECF0A3EDF0A3EEF0A3EFF0227E
:1002FF00A8828583F0D083D08212031612031612C0
:10030F000316120316E473E493A3C583C5F0C583E4
:10031F00C8C582C8F0A3C583C5F0C583C8C582C848
:01032F0022AB
:1003C800900114120330780FEFA2E2EC20E601B39B
:1003D8005D5E5FF47004FCFDFEFFEF13FFEE13FE9D
:1003E800ED13FDEC13FCD8E09001141202F3EE5467
:1003F8007FFE22900114EEF0EFA3F0A3E4F0A3F047
:0104080022D1
:10034800020003E493A3F8E493A34003F68001F2C8
:1003580008DFF48029E493A3F85407240CC8C333B6
:10036800C4540F4420C8834004F456800146F6DF85
:10037800E4800B010204081020408090054AE47EC6
:10038800019360BCA3FF543F30E509541FFEE4937A
:10039800A360010ECF54C025E060A840B8E493A341
:1003A800FAE493A3F8E493A3C8C582C8CAC583CA6C
:1003B800F0A3C8C582C8CAC583CADFE9DEE780BE24
:0105540000A6
:0C033000E0FCA3E0FDA3E0FEA3E0FF2240
:00000001FF
