:1015D400E4FEFDC293C290D2910000D2900000C2FA
:1015E40090D2910000D2900000C290EF24FF92911B
:1015F4000000D2900000C290D2910000E4FFD2908B
:101604000000C2900000EE25E0FEA291E4334EFEFD
:101614000FBF08EAE4FFA291E433FCA807088002A4
:10162400C333D8FC4205D2900000C29000000FBF23
:0D16340008E4D293EEB50503FF80027F00AD
:011641002286
:10164200D2BABEA7C6C1C7FACFDFCFD4CABEC1BD08
:10165200C2B74144D7AABBBB3A002D2D2D2D2D2D4B
:101662002D2D2D2D2D2D2D2D2D2D2D2D2D2D0043BF
:1016720048303A2025322E3366004348313A20253D
:05168200322E3366006A
:1013A100E4F532F533F534F535F536F537121687B0
:1013B1007BFF7A167942E4FDFF1210107BFF7A164B
:1013C100795C7D0CE4FF121010E4FF1215D48F221A
:1013D100753BFF753C16753D71AC22E412087FE444
:1013E100FBFA798078431207D8E4FBFA79A07840B8
:1013F1001206CF8F418E408D3F8C3E7B007A007963
:1014010023120BFD7B007A0079237D14E4FF121077
:1014110010AF227E007C007D28120B2EAC06AD079A
:10142100E412087AE4FBFA798078431207D8A80419
:10143100A905AA06AB07E4FFFE7D207C421205DA6E
:101441001208B31218048F33E53270038533360561
:1014510032E532B4A003E4F532E53204FB753B49D1
:10146100C2007D21AF321211EFE5362421FDE532B4
:1014710004FBE5332421F53BD200AF321211EF8595
:1014810033367F011215D48F22753BFF753C1675DB
:101491003D7CAC22E412087FE4FBFA7980784312A8
:1014A10007D8E4FBFA79A078401206CF8F418E402D
:1014B1008D3F8C3E7B007A007923120BFD7B007AF5
:1014C1000079237D4AE4FF121010AF227E007C00D8
:1014D1007D28120B2EAC06AD07E412087AE4FBFA64
:1014E100798078431207D8A804A905AA06AB07E4B6
:1014F100FFFE7D207C421205DA1208B31218048F18
:1015010035E53470038535370534E534B4A003E49B
:10151100F534E53404FB753B9FC2007D57AF3412AF
:1015210011EFE5372457FDE53404FBE5352457F584
:0E1531003BD200AF341211EF8535370213CADA
:10000300148000000000000000FFFFFFFFFF00005E
:100013000000000000000000000000307878783015
:1000230030003030000000666666240000000000E7
:100033000000006C6CFE6C6C6CFE6C6C000030306D
:100043007CC0C0780C0CF8303000000000C4CC1821
:100053003060CC8C00000070D8D870FADECCDC762F
:100063000000003030306000000000000000000C91
:10007300183060606030180C0000006030180C0C01
:100083000C1830600000000000663CFF3C66000076
:10009300000000000018187E18180000000000007F
:1000A300000000000000383860000000000000FE7F
:1000B30000000000000000000000000000003838CD
:1000C3000000000002060C183060C0800000007CB5
:1000D300C6CEDED6F6E6C67C0000001030F0303027
:1000E300303030FC00000078CCCC0C183060CCFCF5
:1000F30000000078CC0C0C380C0CCC780000000C01
:100103001C3C6CCCFE0C0C1E000000FCC0C0C0F8F4
:100113000C0CCC780000003860C0C0F8CCCCCC7894
:10012300000000FEC6C6060C183030300000007810
:10013300CCCCEC78DCCCCC7800000078CCCCCC7C7C
:1001430018183070000000000038380000383800FC
:100153000000000000383800003838183000000C68
:10016300183060C06030180C0000000000007E00F2
:100173007E0000000000006030180C060C18306090
:1001830000000078CC0C1830300030300000007CC8
:10019300C6C6DEDEDEC0C07C0000003078CCCCCC2E
:1001A300FCCCCCCC000000FC6666667C666666FC14
:1001B3000000003C66C6C0C0C0C6663C000000F834
:1001C3006C66666666666CF8000000FE6260647CBE
:1001D300646062FE000000FE6662647C646060F03E
:1001E3000000003C66C6C0C0CEC6663E000000CC20
:1001F300CCCCCCFCCCCCCCCC000000783030303034
:10020300303030780000001E0C0C0C0CCCCCCC78B9
:10021300000000E6666C6C786C6C66E6000000F02B
:1002230060606060626666FE000000C6EEFEFED699
:10023300C6C6C6C6000000C6C6E6F6FEDECEC6C605
:10024300000000386CC6C6C6C6C66C38000000FC89
:100253006666667C606060F0000000386CC6C6C6E7
:10026300CEDE7C0C1E0000FC6666667C6C6666E671
:1002730000000078CCCCC07018CCCC78000000FC17
:10028300B430303030303078000000CCCCCCCCCC23
:10029300CCCCCC78000000CCCCCCCCCCCCCC783043
:1002A300000000C6C6C6C6D6D66C6C6C000000CC77
:1002B300CCCC783078CCCCCC000000CCCCCCCC7877
:1002C30030303078000000FECE9818306062C6FEF1
:1002D3000000003C303030303030303C0000000053
:1002E30080C06030180C06020000003C0C0C0C0CA3
:1002F3000C0C0C3C000010386CC600000000000021
:10030300000000000000000000000000FF0030308B
:100313001800000000000000000000000000780C3E
:100323007CCCCC76000000E060607C66666666DCB0
:1003330000000000000078CCC0C0CC780000001C96
:100343000C0C7CCCCCCCCC7600000000000078CC2C
:10035300FCC0CC78000000386C6060F8606060F02E
:1003630000000000000076CCCCCC7C0CCC7800E004
:1003730060606C76666666E6000000181800781800
:100383001818187E0000000C0C003C0C0C0C0CCC54
:10039300CC7800E06060666C786C66E600000078FC
:1003A300181818181818187E000000000000FCD652
:1003B300D6D6D6C6000000000000F8CCCCCCCCCCFE
:1003C30000000000000078CCCCCCCC78000000000A
:1003D3000000DC666666667C60F00000000076CC98
:1003E300CCCCCC7C0C1E00000000EC6E766060F080
:1003F30000000000000078CC6018CC7800000000FA
:100403002060FC6060606C38000000000000CCCC11
:10041300CCCCCC76000000000000CCCCCCCC783027
:10042300000000000000C6C6D6D66C6C00000000B9
:100433000000C66C38386CC6000000000000666619
:1004430066663C0C18F000000000FC8C1860C4FCCD
:100453000000001C303060C06030301C0000001809
:100463001818180018181818000000E03030180C7D
:10047300183030E000000073DACE00000000000006
:100483000000D2BA81005FE0250085C0AA404EC0BB
:100493005A404980C88049404E200000BEA71F80B3
:1004A30010801F8010801F8000007BE04A207BE0CB
:1004B3004A207BE00000C6C17FC040407FC050801F
:1004C30049005FC049007FE049009100A10000009E
:1004D300D7AA2100F90047E06100A7E0FA0023C092
:1004E3003840E080230020800000BBBB220027802F
:1004F300F8802FC029403940E9403FE02280244062
:10050300F8200000CFD43F8020803F8020803F80B0
:1005130000004A402A402A800B00FFE00000CABEC8
:1005230000807FC000000000FFE00400148024402E
:10053300442084201C000000C1BDFFE01200120013
:100543007FC0524052405B4064C04840404041C07D
:100553000000C2B7F20093C09440FA80A100228049
:10056300B7E0AA40A240FA4083C00000BDE12100E9
:1005730021004FE09100E1002FE05000E7C004406C
:100583003440C7C00000B9FB3FC024403FC02440F3
:100593003FC00400FFE00E0015002480C46000008B
:1005A300C7FA090009007FE04920492049207FE07C
:1005B3004920492049207FE00000CFDF22802240EC
:1005C30052609780E2604F80B240C2803120C6A063
:0405D30018600000AC
:0517DD00ED908000F01A
:0E17E2007F0A908100E0540364036002DFF48C
:0117F00022D6
:0B1825007F0A908100E020E302DFF763
:011830002295
:0616F900900003E493FDE4
:1016FF00AE071217E2EF70037F01221217DDEF70B2
:10170F00037F0222EB1217DEEF70037F032290811B
:06171F0000EEF07F002245
:10179400AE071217E2EF70037F01221217DDEF701C
:0C17A400037F0222908100EEF07F002203
:0517B0001217F17FB2E9
:1017B500AE071217E2EF70037F0122908100EEF071
:0317C5007F002280
:1017F100AE07121825EF70037F0122908000EEF0F2
:031801007F002243
:0F1816001217E2EF70037F0122908000E0FF22A3
:0D16C600E5392541FFE538131313541FFDCE
:0416D300AC05A907B2
:1016D700900003E493FFE98FF0A4FFEC7A002FFF5B
:1016E700EA35F0FEAD07AB067F241216FF890E8C94
:0116F7000CE6
:0116F80022CF
:10168700C2B3D2B3E4FBFD7F401216FF7F411216AF
:10169700F9E4FD7F421216FF7F431216F97D0F7F93
:1016A700221217947FA11217B57F801217B57F9862
:0F16B7001217B5750868750900E4F50AF50B22DE
:0A1010008F388D398B3A8A3B893CFA
:10101A00E4F5401217C88F43E540C39543400302E5
:10102A0011EEAB3AAA3BA93C854082758300120AAD
:10103A00EFF53D854082758300A3120AEFF53EE580
:10104A0038131313541FFDAF391216D3C3E53D6489
:10105A008094805003021113E53D648094A05034BB
:10106A00E53D24F8601C24FB600424037026054037
:10107A00E4F538E539C39470509E740C2539F53976
:10108A0080960540E539D39408400674F82539F569
:10109A0039E4F53FE4F541C3E53D6480949F404B54
:1010AA00E53DFD3395E08D82F583740C120B4EE518
:1010BA00822541F582E43583F583E5822491F58220
:1010CA00E58334FEF583E493F53F1216C6E53854FA
:1010DA0007700C7FB01217B5AF3F1217B0800CE53E
:1010EA00392541FBAD38AF3F12153F1216C60541EF
:1010FA00E541C3940C40A0E53D640870030211E980
:10110A0074082538F5380211E9E4F54175F01AE555
:10111A0041A42485F582E5F03404F583E493B53DD2
:10112A001675F01AE541A42486F582E5F03404F533
:10113A0083E493653E60070541E541B40DCEE4F5CD
:10114A0042E53925421216CAE541C3940D503A7553
:10115A00F01AE541A42487F582E5F03404F5837595
:10116A00F002E542120B5FE493F53D75F01AE54192
:10117A00A42488F582E5F03404F58375F002E5428B
:10118A00120B5FE493F53E8005E4F53EF53DE53844
:10119A005407700C7FB01217B5AF3D1217B0800C10
:1011AA00E5392542FBAD38AF3D12153FE538240835
:1011BA00FD5407700C7FB01217B5AF3E1217B080FE
:1011CA000AE5392542FBAF3E12153F0542E542C307
:1011DA00940C500302114B740C2538F53805400560
:0411EA00400210228D
:0111EE0022DE
:06153F008F448D458B4630
:10154500E5455407F54AC37408954AF549E5451339
:101555001313541FFDAF461216D37FB11217B512E0
:1015650018168F471218168F48AF4974FFA8070839
:101575008002C333D8FC5547FFAE4AE544A80608A8
:101585008002C313D8FC4FF547AF4A74FFA807087C
:101595008002C313D8FC5548FFAE49E544A80608A8
:1015A5008002C333D8FC4FF5487FB21217B5E54525
:1015B500131313541FFDAF461216D37FB01217B580
:0F15C500AF471217F1AF481217F17FB20217B5F7
:04177200AE07AF050A
:10177600EE5407FDC374079D44F0F546300103435C
:0E1786004608EE1216CDE54644F0FF0217B5F8
:06174C008B468A47894824
:10175200120AD6FFAB49AA4AA94B120AD6AB46AA2D
:1017620047A948120B1CAB49AA4AA94BEF020B1C12
:0611EF008F388D398B3AA8
:1011F500C3E538953AFFE49400FE121804C006C012
:1012050007C3E539953BFFE49400FE121804D005A9
:10121500D004D3EF9DEC6480F8EE6480984003021F
:1012250012E6C3E53A9538FDE49400FCE412087A29
:10123500C004C005C006C007C3E53B9539FDE4946D
:1012450000FCE412087AD003D002D001D0001207C6
:10125500D88F418E408D3F8C3EAC38E412087FAB71
:1012650041AA40A93FA83E1206CFC004C005C0064A
:10127500C007AC39E412087FD003D002D001D000FA
:101285001205DA8F458E448D438C42E538D3953A65
:101295004012754900754A00754B3A7B007A007912
:1012A5003812174C85383CE53CD3953A4003021378
:1012B500A0AC3CE412087FAB41AA40A93FA83E126E
:1012C50006CFAB45AA44A943A8421205DE1208B3CE
:1012D5008F3DA2009201AD3DAF3C121772053C80D7
:1012E500C6C3E53B9539FDE49400FCE412087AC0D9
:1012F50004C005C006C007C3E53A9538FDE494006F
:10130500FCE412087AD003D002D001D0001207D82D
:101315008F418E408D3F8C3EAC39E412087FAB4146
:10132500AA40A93FA83E1206CFC004C005C006C00A
:1013350007AC38E412087FD003D002D001D00012E8
:1013450005DA8F458E448D438C42E539D3953B4074
:1013550012754900754A00754B3B7B007A00793957
:1013650012174C85393DE53DD3953B502EAC3DE4F8
:1013750012087FAB41AA40A93FA83E1206CFAB4554
:10138500AA44A943A8421205DE1208B38F3CA20065
:0B1395009201AD3D121772053D80CBA8
:0113A000222A
:1005D70002091FE86480F8E933E83360110460F02A
:1005E700ED33EC337009E8FCE9FDEAFEEBFF22048A
:1005F70060DED3EB9FEA9EE99DE8C2E78CF0C2F785
:1006070095F0400CE8CCF8E9CDF9EACEFAEBCFFB50
:100617001208EA85D0F05804700320D5B3E80470B7
:10062700075002B2D502092992D5EC0460F7E4CC51
:10063700C0E0C398F8603B94186008400DD0E0FB19
:10064700020901E4FBFAC9FC8028E830E406E4C9A2
:10065700FBE4CAFCE830E305E4C9CACBFCE854076D
:100667006010F8C3E913F9EA13FAEB13FBEC13FC78
:10067700D8F130F52FC3E49CFCEF9BFFEE9AFEED1B
:1006870099FDD0E0FBEF4E4D4C701222DB030209BF
:1006970026EC2CFCEF33FFEE33FEED33FDED30E7B8
:1006A700EB020901EF2BFFEE3AFEED39FDD0E0FB3F
:1006B70050130BBB0003020929ED13FDEE13FEEFE8
:0806C70013FFEC13FC02090112
:1006CF00EC4D6011E8497017ED33EC3304600DE425
:1006DF00FCFFFEFD22E933E8330470F802091F1214
:1006EF0008EA58046009E4CC248150062850090216
:1006FF000929284003020926C0E0EB4A7044B9805B
:10070F0006D0E0FB020915EF4E701CBD8008EBFF11
:10071F00EAFEE9FD80EBE98DF0A4FEE5F00207B8F3
:10072F00E9CDF9EAFEEBFFEF89F0A4FCE5F0CE8905
:10073F00F0A42EFFE435F0CD89F0A42DFEE435F0C2
:10074F008067EF4E7005BD80D780C3EF8BF0A4ACF0
:10075F00F0EE8BF0A42CFCE435F0F8EF8AF0A42C2B
:10076F00E5F038FCE433CB8DF0A42CFCE5F03BF83E
:10077F00EE8AF0A42CFCE5F038F8E433CF89F0A42E
:10078F002CFCE5F038CF3400CE89F0A42FFFE5F034
:10079F003EFEE433C98DF0A42EFEE5F039CD8AF08C
:1007AF00A42FFFE5F03EFEE43DFD33D0E0FB500704
:1007BF000BBB000F020929EC2CFCEF33FFEE33FECD
:0607CF00ED33FD020901FB
:1007D500020929EC5D046005E85904700302091F4C
:1007E5001208EA580460F6EC4860F2EC7004FDFE6D
:1007F500FF22C860DB2481C85009C39860025006F7
:100805000209269850CAF582E9294B4A7005AB8240
:1008150002091575F0007C1A7880C3EF9BEE9AEDFE
:1008250099400DC3EF9BFFEE9AFEED99FDE842F06E
:10083500DC23ACF0D0E0FFD0E0FED0E0FDAB8220C1
:10084500E7101BEB60BAEC2CFCEF33FFEE33FEED4B
:1008550033FD020901E803F830E705C0F075F00043
:10086500EF2FFFEE33FEED33FD40B830E7C280AA2F
:1008750075F020800E75F010800575F0087D007EFE
:10088500007F003392D530D503120B40EC33401076
:10089500EF33FFEE33FEED33FDEC33FCD5F0ED2207
:0E08A500E5F0247EA2D513CC92E7CDCEFF2243
:1008B300EDD2E7CD33EC3392D524814006E4FFFE3D
:1008C300FDFC22FCE4CFCECDCC24E0501174FF809C
:1008D300EDC3CC13CCCD13CDCE13CECF13CF047039
:0708E300F030D5DE020B40EE
:100BA100E54F243BF8E6054F227838300702783BC1
:100BB100E475F001120B6B020AD62000EB7F2ED2F6
:100BC100008018EF540F2490D43440D4FF30040B2C
:100BD100EF24BFB41A0050032461FFE550600215F1
:100BE100500553E5537002055230070D7838E4750E
:100BF100F001120B6BEF020B1C0217257403D207D5
:100C01008003E4C207F54F8B388A39893AE4F550FD
:100C1100F552F553E55060077F20120BDC80F57526
:100C210051FFC201C200C202C203C205C206C2080C
:100C3100120BAAFF700D3007057F00120BEDAF53A9
:100C4100AE5222B4255FC2D5C204120BAAFF24D032
:100C5100B40A00501A75F00A785030D50508B6FF6D
:100C61000106C6A426F620D5047002D20380D92439
:100C7100CFB41A00EF5004C2E5D204020EDAD20159
:100C810080C6D20080C0D20280BCD2D580BAD20543
:100C910080B47F20120BDC2002077401B5500040A4
:100CA100F1120BA1FF120BDC020C15D208D2068047
:100CB10095120BA1FB120BA1FA120BA1F94A4B7071
:100CC1000679D17A0F7BFF20022EE550602A7E0043
:100CD1008E82758300120AEF60060EEE655170F088
:100CE100C2D5EBC0E0EAC0E0E9C0E0EE120F3AD0B5
:100CF100E0F9D0E0FAD0E0FB120AD6FF60AAEBC01F
:100D0100E0EAC0E0E9C0E0120BDCD0E02401F9D058
:100D1100E03400FAD0E0FBE5510460DCD551D98024
:100D210087D20280A2120F1D60F7E55170010412F3
:100D31000934A951600DE551600914F551120FC430
:100D4100EF60F3EA30E702F404C3995077EAF4253F
:100D5100510430E701E404F551800D120F1D60C10B
:100D6100EA05512551120934EA784EF630E701E4DB
:100D7100255104D5510420050114120F3AE4C0E0B5
:100D8100120FC4784EE6601320E70714F6120BC465
:100D9100802204F6D0E014C0E07F00120BC4E551BC
:100DA1006007120BBB1551800B300503120BBBD032
:100DB100E0020C15D0E00480C5120F1D60A0E551C2
:100DC10004120934784EEAF6E55120050260010467
:050DD1002404120F3A9A
:100DD60074FF04C0E0120FC4120BC4E551200502D3
:100DE6006003120BBBD0E0B551E87F45120BCE78FD
:100DF6004EE67F2B30E7047F2DF404C0E0120BDCB7
:100E0600D0E075F00A84C0F0120BC5D0E0120BC515
:100E1600020C15791080027908C206C2088008D231
:100E2600D5790A8004790AC2D5E551047002F551D4
:100E3600E4FAFDFEFF120BA1FC7B08200113120B46
:100E4600A1FD7B1030000A120BA1FE120BA1FF7B45
:100E560020EC3382D592D55013C3E43000069FFFB1
:100E6600E49EFEE42001039DFDE49CFCE4CBF8C275
:100E760001EC700CCFCECDCCE824F8F870F38017D7
:100E8600C3EF33FFEE33FEED33FDEC33FCEB33FB08
:100E9600994002FB0FD8E9EB300105F8D0E0C448D1
:100EA600B201C0E00AEC4D4E4F78207B0070C2EADA
:100EB600B5510040BCC0E0120F3CD0F0D0E020019C
:100EC60004C4C0E0C4B201C0F0120BC5D0F0D5F026
:100ED600EB020C15120B7B0CB2530E19580C834CFB
:100EE6000C7F420E1D4F0E25440E25490C98430ECD
:100EF6002B550D5C460DBA450D26470FF1500C8754
:100F06002D0C8B2E0CAE2B0C8F230CAC200FDA2A5B
:100F16000C474800000CA6E551B4FF0375510612B4
:100F26000BA1FC120BA1FD120BA1FE120BA1FF7867
:100F360047020963790AA2D5200314300509B910BE
:100F4600020404B9080104A2D520060250010420B7
:100F560002689202B550005034C0E07F2030031979
:100F66007F30A20272067205500F120F93C202C2A0
:100F760006C205C2087F30800F300503E9C0E012C3
:100F86000BDC300503D0E0F9D0E0B550CC300517C6
:100F96007F30B9100C120BDC7F583004077F788045
:100FA60003B90803120BDC3002057F2D020BDC7F30
:100FB600202008F87F2B2006F322920280CF7F00A4
:100FC600B4070050052447F8E6FF22286E756C6CBE
:100FD6002900D201120BA13001F8C201785030D598
:100FE6000108F6020C472D50434958120BA1240361
:100FF600B405004001E4900FEC93120BCD743A1245
:0A1006000BCDD203755004020E1941
:1008EA00E9D2E7C933E833F892D5EDD2E7CD33EC54
:0708FA0033FC5002B2D522CD
:10090100EC30E7100FBF000C0EBE00080DBD000457
:100911000BEB6014A2D5EB13FCED92E7FD2274FF03
:10092100FCFDFEFF22E480F8A2D574FF13FC7D805C
:03093100E480EF70
:10093400F920E72824F950037907E4F42402FB188A
:10094400DBFDE624FB5014E9600DE4F618E604F63A
:0F095400B40A08E4F6D9F57401F60A22C2D522D6
:10096300ED33EC3392D5FA602AB4FF33EDC2E77B63
:10097300FF60067A097988E4227A09799120D504FF
:100983007A09798C224E614E002B494E46002D493F
:100993004E4600E47A08F608DAFC7B00740722E886
:1009A300C0E0ECC0E0EDC0E0EEC0E0EFC0E0EA750F
:1009B300F010A4CAABF075F04DA42BFBE435F0FCAA
:1009C300EA2410FAEB34C5FBEC34D9FCEDC2E7FFA3
:1009D30075F056A4F42411C5F0F434C58FF0A42A9D
:1009E300E5F03BE43CF620E714120A96D0E0FFD092
:1009F300E0FED0E0FDD0E0FC1207D88014F404122E
:100A03000A96D0E0FFD0E0FED0E0FDD0E0FC120675
:100A1300CFD0E0F8E6FAEDD2E7CD33EC332482FB16
:100A2300E4C3CF33CFCE33CECD33CD33DBF37B072C
:100A330075F00A846004F6081B0AE5F0F6088FF0E7
:100A4300740AA4FFACF08EF0740AA42CFEACF05030
:100A5300010C8DF0740AA42CFDE435F0F608DBDEFE
:030A6300740722F3
:100A66003F8000004120000042C80000447A000098
:100A7600461C400047C35000497424004B1896801A
:100A86004CBEBC205A0E1BCA6753C21C749DC5AE11
:100A9600FB60065407601C2323120AC4EB5438601B
:100AA60009120AB0120ABF1206CFECF8EDF9EEFAF7
:100AB600EFCB22EB120ABF80F1543803241C900AB4
:100AC60066FE93FC0EEE93FD0EEE930ECE93FF2282
:03000000021831B2
:0C183100787FE4F6D8FD7581530213A106
:100AD600BB010689828A83E0225002E722BBFE021E
:090AE600E32289828A83E4932251
:100AEF00BB010CE58229F582E5833AF583E02250BC
:100AFF0006E92582F8E622BBFE06E92582F8E22206
:0D0B0F00E58229F582E5833AF583E493221F
:100B1C00BB010689828A83F0225002F722BBFE01B8
:020B2C00F322B2
:100B2E00EF8DF0A4A8F0CF8CF0A428CE8DF0A42EDB
:020B3E00FE2295
:0E0B4000C3E49FFFE49EFEE49DFDE49CFC22C6
:100B4E00F5F0C582A4C582C5F0C583A42583F583BF
:010B5E002274
:0C0B5F00A42582F582E5F03583F58322A1
:100B6B00FAE6FB0808E6F925F0F618E6CA3AF6228B
:100B7B00D083D082F8E4937012740193700DA3A309
:100B8B0093F8740193F5828883E47374029368601D
:060B9B00EFA3A3A380DF1D
:10172500EFB40A07740D121730740A309811A8998E
:10173500B8130CC2983098FDA899C298B811F63024
:0717450099FDC299F59922FC
:10180400C3EE6480948040028007C3E49FFFE49E9B
:02181400FE22B2
:1017C800E4FFFE120AD6600C0FEF70010E09E970F3
:0517D800F20A80EF227F
:00000001FF
