:10053F00E4FE00000000EF25E0FF92B30000000092
:10054F00D2B200000000C2B20EBE08E6D2B3000065
:10055F000000D2B200000000A2B3B392D500000099
:05056F0000C2B2A2D59C
:010574002264
:1005F900E4FFD2B3FED2B200000000EF25E0FFA273
:10060900B3E4334FFF00000000C2B2000000000E47
:03061900BE08E236
:01061C0022BB
:0202C400AB0786
:1002C600AF5AAE59AD58AC5778101201B0EF540181
:1002D600FFEF25E0FAE55AFFE559FEAD07AC06D279
:1002E600B300000000D2B200000000C2B30000005C
:1002F60000C2B2EB4AFF12053F40037F0022AF0463
:1003060012053F40037F0022AF0512053F40037FE1
:100316000022D2B300000000D2B200000000C2B337
:1003260000000000C2B2EB4401FF12053F40037F0C
:100336000022E4FDE55E14FFEDC39F50291205F986
:10034600AB5BAA5CA95D8D82758300EF12013FC28B
:10035600B300000000D2B200000000C2B2000000EC
:1003660000D2B30D80CE1205F9E55E7C0024FFF5C0
:1003760082EC34FFF583AB5BAA5CA95DEF12013F0B
:10038600D2B300000000D2B200000000C2B20000EA
:100396000000C2B3C2B300000000D2B200000000E9
:0603A600D2B300000000CC
:0103AC00222E
:1003AD00BAECBEFCB2BBC5C2D4B6D5F7C4D1A3ACB2
:1003BD0000CDF2CBAEC7A7C9BDD6BBB5C8CFD0A1B6
:1003CD00A300CEE5C1EBE5D4E5C6CCDACFB8C0CB02
:1003DD00A3AC00CEDAC3C9B0F5EDE7D7DFC4E0CDED
:1003ED00E8A1A300BDF0C9B3CBAEC5C4D4C6D1C27C
:1003FD00C5AFA3AC00B4F3B6C9C7C5BAE1CCFACB4F
:10040D00F7BAAEA1A300B8FCCFB2E1BAC9BDC7A778
:10041D00C0EFD1A9A3AC00C8FDBEFCB9FDBAF3BEB7
:10042D00A1BFAAD1D5A1A3000000000000000000CB
:0D043D000000000000000000000001101190
:10065800EF1FAA0670011E4A600BE4FDEDC39478F3
:0506680050EE0D80F7CB
:01066D00226A
:0601C3008B4A8A4B894CB7
:1001C90078527C007D007BFF7A0479467E007F04AB
:1001D9001200D3AB4AAA4BA94C1200F92460FF9034
:1001E90000011201122460FDEF1475F05EA4FFED09
:1001F90024FFFDE434FFCD2FFFED35F0FEE4FCFDD7
:100209007B20FAF9F81201618F508E4F8D4E8C4D7B
:1002190078111201B0AB07E550F550E54FF54FE500
:100229004E5401F54EE4F54DEB701B85505A854F40
:1002390059854E58854D57F55B755C00755D087598
:100249005E207FA0801A85505A854F59854E588562
:100259004D57755B00755C00755D08755E207FA460
:100269001202C4E4F9E4FDE4F551FC745229F8E6FC
:10027900FFEC25E02F2408F8E6FB7A0074807E0065
:10028900A805088006CEA2E713CE13D8F8FFEE5AC8
:10029900FEEF5B4E600D7401A804088002C333D8D9
:1002A900FC42510CBC08C4E975F008A42D2428F8B7
:0A02B900A6510DBD08B109B904AB50
:0102C3002218
:1004D70012063BE4F548E4F549E54875F011A42414
:1004E700ADF9740335F0FA7BFFE92549F9E43AFAE7
:1004F7001201C3E548540325E0FFE549C313C4547B
:10050700F0FD754D00754E00754F287B011205757E
:1005170005490549E549C3941040BEE548640360B1
:1005270005E548B407077FE87E031206580548E546
:0805370048C3940840A0809B1A
:10066E007580FFD2A100C2A0D2A200C2A2E5803343
:01067E002259
:09061D00C2A3D2A4E55524B8FFE4
:1006260012066E40FB7580FFC2A100C2A08F80D269
:05063600A200C2A22297
:1005D400AB58AA59A95A855B82758300120112FF90
:1005E40012066E40FB7580FFC2A100D2A08F80D29C
:0505F400A200C2A222DA
:10063B00D2A3D2A47F381206267F0F1206267F0183
:0D064B001206267F061206267FC002062634
:06044A008F558D568B5703
:10045000E556C394405066D2A3C2A4120621E556C5
:100460002440FF120626E5562557FFE433FEC3EF6E
:100470009440EE648094805011E4F55BE55BC39595
:100480005750531205D4055B80F2E4F55BC374400A
:100490009556FFE55BC39F50071205D4055B80EDC1
:1004A00012061D7F40120626C374409556F55BE583
:1004B0005BC3955750201205D4055B80F212061DD0
:1004C000AF56120626E4F55BE55BC395575007125D
:0604D00005D4055B80F27B
:0104D6002203
:1005A7008F518B528A538954AC058B588A59895A73
:1005B7007B1012044AE55104FFE5542410F9E43591
:0D05C70053855258F559895A7B1002044A99
:060575008F4A8D4B8B4CF8
:10057B00E4F550E550C3954C5021E55075F020A49F
:10058B00AB4D254FF9E54E35F0FAE550C454F02547
:0B059B004BFDAF4A1205A7055080D8A9
:0105A6002232
:0300000002067F76
:0C067F00787FE4F6D8FD75815E0204D798
:10000300E709F608DFFA8046E709F208DFFA803EDF
:1000130088828C83E709F0A3DFFA8032E309F608CC
:10002300DFFA8078E309F208DFFA807088828C8334
:10003300E309F0A3DFFA806489828A83E0A3F608E8
:10004300DFFA805889828A83E0A3F208DFFA804CC2
:1000530080D280FA80C680D4806980F28033801099
:1000630080A680EA809A80A880DA80E280CA803302
:1000730089828A83ECFAE493A3C8C582C8CCC5837A
:10008300CCF0A3C8C582C8CCC583CCDFE9DEE7804A
:100093000D89828A83E493A3F608DFF9ECFAA9F0C9
:1000A300EDFB2289828A83ECFAE0A3C8C582C8CC1F
:1000B300C583CCF0A3C8C582C8CCC583CCDFEADE38
:1000C300E880DB89828A83E493A3F208DFF980CC9A
:1000D30088F0EF60010E4E60C388F0ED2402B40493
:1000E3000050B9F582EB2402B4040050AF2323453A
:0600F3008223900053730C
:1000F900BB010689828A83E0225002E722BBFE0205
:09010900E32289828A83E4932237
:10011200BB010CE58229F582E5833AF583E02250A2
:1001220006E92582F8E622BBFE06E92582F8E222EC
:0D013200E58229F582E5833AF583E4932206
:10013F00F8BB010DE58229F582E5833AF583E8F0F6
:10014F00225006E92582C8F622BBFE05E92582C8A2
:02015F00F2228A
:10016100E88FF0A4CC8BF0A42CFCE98EF0A42CFC3D
:100171008AF0EDA42CFCEA8EF0A4CDA8F08BF0A4BB
:100181002DCC3825F0FDE98FF0A42CCD35F0FCEB1A
:100191008EF0A4FEA9F0EB8FF0A4CFC5F02ECD39DF
:0F01A100FEE43CFCEAA42DCE35F0FDE43CFC224C
:1001B000E8600FECC313FCED13FDEE13FEEF13FF2D
:0301C000D8F12251
:00000001FF
