:03091E000108FFCE
:10090800EF1FAA0670011E4A600BE4FDEDC3947840
:0509180050EE0D80F718
:01091D0022B7
:10088C00D293D290759850758920758DFD758BFD1E
:10089C00E4F587C298C299D28E75A8902097FD7FF7
:1008AC000A7E001209082097F33097FD0508E50829
:1008BC00B40B03E4F5088508993099FDC29980DCE6
:030023000208CC04
:1008CC00C0E0C0D075D000C007309829C298AF994D
:1008DC00EF24BF601014601314601624EB7016D252
:1008EC0090D2938010C290D293800AD290C29380FF
:0C08FC0004C290C293D007D0D0D0E032EC
:03000000020800F3
:0C080000787FE4F6D8FD758108020847F7
:10080C0002088CE493A3F8E493A34003F68001F26E
:10081C0008DFF48029E493A3F85407240CC8C333ED
:10082C00C4540F4420C8834004F456800146F6DFBC
:10083C00E4800B010204081020408090091EE47E25
:10084C00019360BCA3FF543F30E509541FFEE493B1
:10085C00A360010ECF54C025E060A840B8E493A378
:10086C00FAE493A3F8E493A3C8C582C8CAC583CAA3
:10087C00F0A3C8C582C8CAC583CADFE9DEE780BE5B
:0109210000D5
:00000001FF
