:10000E00001F1C1F1E1F1E1F1F1E1F1E1F40201005
:10001E000CE3222222FE22222222020000040404E9
:10002E000407040404FF0404040404040000000094
:10003E000000FF1111111111FF00000000004020FF
:10004E00100C0301010121413F00000000000000DF
:10005E00FE42424242424242FE00000000000000C8
:10006E003F101010101010103F0000000000000094
:10007E00BE2A2A2AEA2A2A2A2A3E000000004846D8
:10008E00414949497F49494949494140000004FFD6
:10009E00545454FF0400FE222222FE000042221B72
:1000AE0002020A336218070222423F000000FC449B
:1000BE004444FC1090101010FF10101000000704A4
:1000CE0004040700000340807F00000000804020F1
:1000DE0098878280808384983060C0400000804082
:1000EE0020100F000020403F00000000001212D22E
:1000FE00FE9111C0381000FF0008106000040300CC
:10010E00FF008380404020231008040300000000FD
:10011E00FE42424242424242FE0000000000000007
:10012E003F101010101010103F00000000008080D3
:10013E0080808080808080808080C0800000000071
:10014E00000000000000000000000000000000049D
:10015E000404040404040404060400000000101047
:10016E001010101010101010101018100000048431
:10017E008484848484848484848404000000202005
:10018E002020202020202020202020200000FE02E1
:10019E000202FE0202FE02020202FE0000007F28A0
:1001AE00242320202021222222227F0000000282EE
:1001BE00828282FE828282C2820200000020202081
:1001CE0020203F202020203F202030200010101023
:1001DE00101091121E9410101010101000004020DC
:1001EE00100C0301000001020C7830000000E0103A
:1001FE00080810E000000F102020100F0000101053
:10020E00F8000000000020203F20200000007008B1
:10021E0008088870000030282422213000003008A1
:10022E0088884830000018202020110E000000C0E1
:10023E002010F8000000070424243F240000F808D2
:10024E0088880808000019212020110E0000E010F7
:10025E008888180000000F112020110E00003808A9
:10026E0008C83808000000003F0000000000708839
:10027E000808887000001C222121221C0000E010BA
:0D028E00080810E0000000312222110F00CE
:0C0C03000108000111FF01100A0112009D
:100BBD00E4FEEF139290D291C291EFC313FF0EBEDC
:020BCD0008F02E
:010BCF002203
:100B1700E4FFEEC313FEA290E433FDC43333335432
:100B2700804206D291C2910FBF08E7EEC4540F75F9
:090B3700F00AA4FFEE540F2FFF99
:010B40002292
:100BD000C292C291D292120BBD120B17D291C29245
:010BE00022F2
:100BE100C291D292120BBDAF05120BBDC291C2923E
:010BF10022E1
:100AAF00E4FD7F8E120BE1E4FCEC25E02480FF7463
:100ABF00092CF8E6FE75F00A84C454F0FDEE75F0CB
:100ACF000A84E5F04DFD120BE10CBC07DC7D807F45
:040ADF008E020BE197
:100BA700E4FCEC25E02481FF120BD074092CF8A695
:050BB700070CBC07ED76
:010BBC002216
:100B4100AB07AA06EB5403700AFC7D64120900EDA1
:100B51004C700FAE02AF037C017D90120900ED4C89
:090B610070047F0180027F002274
:10078700751A00751B05E50F24D0F515E43407F538
:10079700147516077517D0C3E5179515E516951443
:1007A7005035AF17AE16120B41EF7E0160047F6E16
:1007B70080027F6D8E188F19E51B2519FFE51A3505
:1007C70018FE7C007D071209008C1A8D1B0517E5A2
:1007D7001770C4051680C0E4F518F519F5167517D6
:1007E70001C3E517950DE51694005033E517900002
:1007F7000E932519F519E43518F518E51764024520
:10080700167012AF15AE14120B41EF60080519E50B
:1008170019700205180517E51770C6051680C2E599
:100827000C2519F519E43518F518E51B2519FFE509
:0F0837001A3518FE7C007D07120900ED04F50E3E
:01084600228F
:0205C700A90782
:1005C900E51170030206A514700302068B1470036B
:1005D90002067114605814602E24FE60030206BDE1
:1005E900B90109E50FC394635002050FB9FF09E585
:1005F9000FD394004002150FE50DB40208E50CB4C1
:100609001D03750C1C805EB90109E50DC3940C50DE
:1006190002050DB9FF09E50DD394014002150DE559
:100629000DB40208E50CB41D03750C1C8037E50DEB
:1006390090000E93F513E50DB40212E50F24D0FFD7
:10064900E43407FE120B41EF600375131DB901096C
:10065900E50CC395135002050CB9FF09E50CD394B9
:10066900014002150C020787B90109E50BC394176C
:100679005002050BE9F4703CE50BD39400403515A5
:100689000B22B90109E50AC3943B5002050AE9F4B2
:100699007022E50AD39400401B150A22B90109E525
:1006A9000AC3943B50020509B9FF09E50AD394002E
:0406B90040021509DD
:0106BD00221A
:03000B0002029B53
:10029B00C0E0C0F0C083C082C0D075D000C000C029
:1002AB0001C002C003C004C005C006C007758C3C6A
:1002BB00758AB00508E508640260030204B275088C
:1002CB0000E511B40603D38001C39200E50F75F06E
:1002DB000A8475F010A424FBF9740135F0FA7BFF46
:1002EB00E5102410FDAF12120955E50F75F00A84C5
:1002FB00E5F075F010A424FBF9740135F0FA7BFFDF
:10030B00E5102418FDAF12120955E511B40403D3FF
:10031B008001C39200E50D75F00A8475F010A424DA
:10032B00FBF9740135F0FA7BFFE5102430FDAF12B9
:10033B00120955E50D75F00A84E5F075F010A4244B
:10034B00FBF9740135F0FA7BFFE5102438FDAF1291
:10035B00120955E511B40303D38001C39200E50CD8
:10036B0075F00A8475F010A424FBF9740135F0FACA
:10037B007BFFE5102450FDAF12120955E50C75F00B
:10038B000A84E5F075F010A424FBF9740135F0FA3A
:10039B007BFFE5102458FDAF12120955C200E50E84
:1003AB0075F020A424FBF9740035F0FA7BFFE510FF
:1003BB002460FDE5122402FF1209CBE511B4020300
:1003CB00D38001C39200E50B75F00A8475F010A47D
:1003DB0024FBF9740135F0FA7BFFE5102410FDE5E1
:1003EB00122405FF120955E50B75F00A84E5F0752B
:1003FB00F010A424FBF9740135F0FA7BFFE510240F
:10040B0018FDE5122405FF120955E511B40103D3BC
:10041B008001C39200E50A75F00A8475F010A424DC
:10042B00FBF9740135F0FA7BFFE5102430FDE51282
:10043B002405FF120955E50A75F00A84E5F075F0FD
:10044B0010A424FBF9740135F0FA7BFFE510243876
:10045B00FDE5122405FF120955E5117003D3800148
:10046B00C39200E50975F00A8475F010A424FBF91A
:10047B00740135F0FA7BFFE5102450FDE5122405DD
:10048B00FF120955E50975F00A84E5F075F010A423
:10049B0024FBF9740135F0FA7BFFE5102458FDE5D8
:1004AB00122405FF120955D007D006D005D004D071
:1004BB0003D002D001D000D0D0D082D083D0F0D0E6
:0204CB00E0321D
:03000300020A41AD
:100A4100C0E0C0F0C083C082C0D075D000C000C07B
:100A510001C002C003C004C005C006C00720B4190C
:100A6100E511F46004E51170037511071511E51125
:100A71006405701F751104801A20B5047F0180057B
:100A810020B6077FFF1205C7800920B706120AAFFB
:100A91007511FFD007D006D005D004D003D002D005
:0E0AA10001D000D0D0D082D083D0F0D0E0328F
:1006BE00120B8A7BFF7A02791BAD10AF121209550D
:1006CE007BFF7A0179FBE5102408FDAF1212095564
:1006DE007BFF7A00791BE5102420FDAF121209CBA7
:1006EE007BFF7A00793BE5102440FDAF121209CB57
:1006FE007BFF7A00795BE5102460FDAF121209CB07
:10070E007BFF7A00797BE5102440FDE5122402FF81
:10071E001209CB7BFF7A00799BE5102450FDE51280
:10072E002402FF1209CB7BFF7A0079BBE51024204F
:10073E00FDE5122405FF1209CB7BFF7A0079DBE57C
:10074E00102440FDE5122405FF1209CB7BFF7A0031
:10075E0079FBE5102460FDE5122405FF1209CB7527
:10076E00A88375B801D288758C3C758AB0D28CE599
:09077E0011B4FFFB120BA780F679
:020C0F00C10022
:100BF2007580FFD2A100C2A0D2A200C2A2E58033BA
:010C020022CF
:0B0B6A00C2A3D2A4A81C08E624B8FF18
:100B7500120BF240FB7580FFC2A100C2A08F80D28C
:050B8500A200C2A22243
:100AE300E51C2404F8860308E6FA08E6F98F827504
:060AF30083001208D3FF8E
:100AF900120BF240FB7580FFC2A100D2A0200004B6
:0E0B09008F808004EFF4F580D2A200C2A222F9
:100B8A00D2A3D2A47F38120B757F0F120B757F0187
:0D0B9A00120B757F06120B757FC0020B75E4
:0F04CD00E51C2404F8E6FDE51C2403F8E604FF13
:1004DC00151CA81CA603151CA81CA605151CA81CDD
:0404EC00A607151C2E
:1004F000A81C0808E6C39440400302059BD2A3C28F
:10050000A4120B6EA81C0808E62440FF120B75E528
:100510001C2403F8E6FFA81C0808E62FFFE433FEBE
:10052000C3EF9440EE64809480501CA81CE4F6E570
:100530001C2403F9A81CE6FFC39740030205C01260
:100540000AE3A81C0680E8A81CE4F6A81C0808C357
:10055000744096FFA81CE6FEC39F5017E51C2404B8
:10056000F8860308E6FA08E6F98E82120AF2A81C59
:100570000680D8120B6A7F40120B75A81C0808C3AE
:10058000744096A81CF6E51C2403F9A81CE6FFC3DA
:1005900097502D120AE3A81C0680EB120B6AA81CC8
:1005A0000808E6FF120B75A81CE4F6E51C2403F905
:1005B000A81CE6FFC3975008120AE3A81C0680EBAC
:0705C000E51C2407F51C22D5
:10095500151C151C151CA81CA60308A60208A60133
:10096500151CA81CA605151CA81CA607A81C08086C
:10097500860308E6FA08E6F9151C151C151CA81CC3
:10098500A60308A60208A6017B08E51C2404F8E6D0
:10099500FDE51C2403F8E6FF1204DCA81C08088604
:1009A5000308E6FA08E62408F9E43A151C151C15AF
:1009B5001CA81CA60308F608A6017B081204CDE5B1
:0609C5001C2405F51C22B4
:1009CB00151C151C151CA81CA60308A60208A601BD
:1009DB00151CA81CA605151CA81CA607A81C0808F6
:1009EB00860308E6FA08E6F9151C151C151CA81C4D
:1009FB00A60308A60208A6017B10E51C2404F8E652
:100A0B00FDE51C2403F8E6FF1204DCA81C0808868D
:100A1B000308E6FA08E62410F9E43A151C151C1530
:100A2B001CA81CA60308F608A6017B101204CDE532
:060A3B001C2405F51C223D
:03000000020847AC
:0C084700787FE4F6D8FD75812002088E51
:1008D300BB010CE58229F582E5833AF583E02250DA
:1008E30006E92582F8E622BBFE06E92582F8E22224
:0D08F300E58229F582E5833AF583E493223E
:10090000BC000BBE0029EF8DF084FFADF022E4CCDB
:10091000F875F008EF2FFFEE33FEEC33FCEE9DECA4
:10092000984005FCEE9DFE0FD5F0E9E4CEFD22EDEA
:10093000F8F5F0EE8420D21CFEADF075F008EF2F34
:10094000FFED33FD4007985006D5F0F222C398FD25
:050950000FD5F0EA22C2
:100853000206BEE493A3F8E493A34003F68001F2F7
:1008630008DFF48029E493A3F85407240CC8C333A6
:10087300C4540F4420C8834004F456800146F6DF75
:10088300E4800B0102040810204080900C03E47EF6
:10089300019360BCA3FF543F30E509541FFEE4936A
:1008A300A360010ECF54C025E060A840B8E493A331
:1008B300FAE493A3F8E493A3C8C582C8CAC583CA5C
:1008C300F0A3C8C582C8CAC583CADFE9DEE780BE14
:010C110000E2
:00000001FF
